:020000040800F2
:10000000B005002001010008571C0008A5170008D2
:10001000551C00089503000801240008000000009A
:10002000000000000000000000000000271E000883
:100030009703000800000000251E0008BD1E0008F0
:100040001B0100081B0100081B0100081B01000820
:100050001B0100081B0100081B010008A103000888
:10006000A70300081B0100081B0100081B01000872
:100070001B0100081B0100081B0100081B010008F0
:100080001B0100081B0100081B0100081B010008E0
:100090001B0100081B0100081B0100081B010008D0
:1000A0001B0100081B0100081B0100081B010008C0
:1000B0001B010008211F00081B0100081B0100088C
:1000C0001B0100081B0100081B0100081B010008A0
:1000D0001B010008F52300081B0100081B01000894
:1000E000990300081B0100081B010008DFF80CD071
:1000F00000F03EF90048004791260008B0050020B6
:100100000648804706480047FEE7FEE7FEE7FEE7B1
:10011000FEE7FEE7FEE7FEE7FEE7FEE71D1F00083D
:10012000ED000008D2B201E000F8012B491EFBD21D
:1001300070470022F6E710B513460A4604461946F2
:10014000FFF7F0FF204610BDF0B480EA0102D40FA3
:100150004200B2EB410F02D20246084611464A0065
:1001600042D0C30DDDB2C1F3C752AD1A202D35DA2E
:10017000C1F3160141F4000204B15242C5F1200658
:1001800002FA06F12A411044B3EBD05F23D0C4B188
:10019000012DA0EBC35009DCF0BC4FF0004202EA95
:1001A000C352DBB200F5000000F0B3B8400000F12C
:1001B000807000EBC350A0F1807040EAD17049001C
:1001C00009E0490841EAC071A0EBC35000F5000006
:1001D000400800EBC350F0BC00F092B8614201222D
:1001E00002EB4101001BF6E7F0BC704781F00041D3
:1001F000AAE780F00040A7E780EA010210B502F00C
:100200000043400022D04A001FD0010E01EB1261D2
:10021000C0F35600C2F3560240F4000042F400025C
:10022000A0FB022000047F39140400D0401C50EAD7
:10023000124001D44000491EC2B20C0604EBD0109B
:10024000401C4008802A02D003E0002010BD20F0AE
:100250000100002900DA0020184310BDC10F80EA18
:10026000E0700844CA079623002100F052B8962394
:100270000022114600F04DB800F0004220F000408E
:10028000C10DC0F3160040F400007F2901DA002000
:100290007047962903DCC1F19601C84001E0963908
:1002A0008840002AF4D0404270470000002801DB5B
:1002B000C0F10040002901DBC1F1004181427047DB
:1002C000002801DBC0F10040002901DBC1F1004141
:1002D0008842704730B50B46014600202022012499
:1002E00009E021FA02F59D4205D303FA02F5491B04
:1002F00004FA02F52844151EA2F10102F1DC30BD1A
:100300000029A8BF7047401C490008BF20F0010029
:10031000704710B4B0FA80FC00FA0CF050EA010407
:1003200004BF10BC704749B1CCF1200421FA04F499
:1003300011FA0CF118BF012121430843A3EB0C0172
:10034000CB1D4FEA00614FEA102042BF002010BCD5
:10035000704700EBC35010440029A4BF10BC704785
:10036000401C490008BF20F0010010BC704700008D
:10037000064C074D06E0E06840F0010394E80700F2
:1003800098471034AC42F6D3FFF7B4FE08280008B3
:1003900028280008FEE770474FF4004000F0A2B89C
:1003A000022000F09FB8042000F09CB872B6FEE76F
:1003B00010B590F821100022022905D00421816394
:1003C00080F82020012010BD01680B6823F00E0387
:1003D0000B6001680B6823F001030B6090F840305C
:1003E000012404FA03F1C36B596080F8214080F8BE
:1003F0002020104610BD000010B590F821100024F8
:10040000022903D00421816301243DE001680A68C8
:1004100022F00E020A6001680A6822F001020A60F6
:100420001A4A0168914201D1012121E0174A143290
:10043000914201D110211BE0144A2832914201D18E
:10044000891515E0114A3C32914201D189140FE01F
:100450000E4A5032914202D14FF4803108E00B4AEB
:100460006432914202D14FF4801101E04FF080716B
:10047000064A083A5160012180F82110002180F8D5
:100480002010416B01B18847204610BD0800024092
:1004900070B5044600F026F90546601C02D00448F9
:1004A0000078044400F01EF9401BA042FAD370BD4E
:1004B00008000020094A0A4B4FF40051B0F5004FE4
:1004C00007D0022807D0042807D11070184600F082
:1004D000FBB80220F9E70320F7E77047040000208B
:1004E00000100140044910B50A68024202D00860B9
:1004F000FFF7E0FF10BD0000140401402DE9F84FA4
:10050000DFF8A4910024A9F1040B23464FF00F0853
:1005100009F1040AABF1040EBEE00127A7403A40FE
:10052000BA4272D1DFF884C14D68A5EB0C0665456F
:100530002BD00DDC032D34D005DC35B3012D19D0C3
:10054000022D2FD11BE0112D16D0122D2AD119E02A
:10055000B6F5881F19D006DCB6F5803F15D0B6F584
:10056000801F1FD111E0B6F5001F0ED0B6F5041F95
:1005700018D10AE0CB6815E0CB681B1D12E0CB68F0
:1005800008330FE0CB680C330CE08B682BB1012BE8
:100590004FF0080303D0476104E0042302E0076141
:1005A00000E00023FF2A01D8064601E000F104061E
:1005B0004FEA840501D9A5F12005376808FA05FC42
:1005C00027EA0C0703FA05F547EA050737604D6887
:1005D000ED0060D5364DAE6946F00106AE61AD69FD
:1005E00024F0030605F001050095324D7719BE6829
:1005F000A5072D0F08FA05FC26EA0C06DFF8B8C09F
:10060000604503D14FF0000C17E044E0DFF8ACC0C8
:10061000604502D14FF0010C0FE0DFF8A4C0604547
:1006200002D14FF0020C08E0DFF898C0604502D11B
:100630004FF0030C01E04FF0040C0CFA05FC4CEAFF
:10064000060CC7F808C04D68D9F80060ED024D46A9
:1006500001D5164300E096432E604D68DAF800603D
:10066000AD02554601D5164300E096432E604D6815
:10067000DBF80060AD035D4601D5164300E096430C
:100680002E604D68DEF80060ED03754601D5164317
:1006900000E096432E60641C0A6832FA04F57FF489
:1006A0003CAFBDE8F88F00000804014000001110C5
:1006B000001002400000014000080140000C014011
:1006C0000010014000140140C26821EA02030A4000
:1006D00043EA0241016170470AB1016170470904B0
:1006E000FBE7000001488068704700000800002018
:1006F0000248816802781144816070470800002038
:10070000074810B5016841F010010160032000F0B6
:1007100075F80F2000F006F800F024F8002010BD56
:100720000020024070B50D4D04464FF47A712878D0
:10073000B1FBF0F00A490968B1FBF0F000F0DEFA15
:1007400048B9102C07D200222146501E00F036F87E
:1007500000206C6070BD012070BD0000080000200A
:10076000140000200C4808B5816941F00101816145
:10077000816901F001010091C16941F08051C161BD
:10078000C069064900F080500090486820F0E060A1
:1007900040F00070486008BD0010024000000140B9
:1007A000002809DB00F01F02012191404009800070
:1007B00000F1E020C0F8001170470000F0B40E4BCB
:1007C0001B68C3F30223C3F10704042C00D90424DB
:1007D0001D1D072D01D2002300E0DB1E012606FAB5
:1007E00004F56D1E0D409D409E40761E164045EA64
:1007F0000601F0BC01F076BE0CED00E0064A00F008
:10080000070110684FF6FF03184040EA0120034932
:1008100008431060704700000CED00E00000FA058E
:100820002DE9F0470D46040067D0DFF81881D8F8AD
:10083000000000F00700A8420CD2D8F8001021F008
:1008400007012943C8F80010D8F8000000F007009D
:10085000A84252D120683C4E810712D5400703D5EB
:10086000706840F4E06070602078000703D570681D
:1008700040F4605070607068A16820F0F000084398
:1008800070602078C00727D06068012810D03168D8
:10089000022810D0890700292FDA716821F003019E
:1008A00001437160FFF71EFF074641F288390CE0F3
:1008B00031688903EFE78901EDE7FFF713FFC11BFB
:1008C000494502D90320BDE8F0877068616800F0EF
:1008D0000C00B0EB810FF0D1D8F80010404601F0C9
:1008E0000701A9420BD9016821F0070129430160E2
:1008F000006800F00700A84201D00120E3E720785B
:10090000400705D57068E16820F4E0600843706036
:100910002078000706D57068216920F4605040EA0D
:10092000C100706000F038F87168084AC1F3031123
:10093000515CC8400649086006480068FFF7F2FEAF
:100940000020C0E70020024000100240EE2700080F
:10095000140000200C000020044805490068496884
:10096000044AC1F30221515CC840704714000020C2
:1009700000100240FE270008044805490068496845
:10098000044AC1F3C221515CC840704714000020E2
:1009900000100240FE2700080E4B59680E4801F077
:1009A0000C02042A11D0082A0FD10C48C1F383424B
:1009B000C903805C0AD55968084AC1F34041921EB8
:1009C000515C054A5043B0FBF1F07047044948437D
:1009D000704700000010024000127A00DE27000875
:1009E00000093D002DE9F84F04006FD02078BE4D7E
:1009F000C00747D06868C0F38100012807D0686845
:100A0000C0F38100022809D16868C00306D52868B0
:100A1000800337D560680028E7D033E06068B0F520
:100A2000803F0BD010B1B0F5A02F11D0286820F472
:100A300080302860286820F4802002E0286840F494
:100A400080302860606888B1FFF74CFE064609E0F8
:100A5000286840F480202860F0E7FFF743FE801B01
:100A6000642873D828688003F7D50BE0FFF73AFEB7
:100A7000064604E0FFF736FE801B6428F1D828689C
:100A80008003F7D42078DFF8648280074FF0010AF2
:100A90004FF0000939D5686810F00C0F07D068686E
:100AA000C0F38100022809D16868C00306D4286811
:100AB000800714D52069012808D110E02069B0B161
:100AC000C8F800A0FFF70EFE064605E007E1FFF7B5
:100AD00009FE801B0228C4D828688007F7D528683B
:100AE000616920F0F80040EAC10028600DE0C8F814
:100AF0000090FFF7F7FD064604E0FFF7F3FD801BCB
:100B0000022823D828688007F7D4207800072CD53E
:100B10007748A169D9B1C0F800A0FFF7E3FD064608
:100B200004E0FFF7DFFD801B02280FD8686A80070A
:100B3000F7D570484FF4FA510068B0FBF1F000901F
:100B400000BF0098411E0091FAD20EE07CE0C0F890
:100B50000090FFF7C7FD064604E0FFF7C3FD801BCA
:100B6000022871D8686A8007F7D4207840075BD5DF
:100B7000E8690027C00008D4E86940F08050E861C7
:100B8000E869012700F0805000905B480168C905C2
:100B900011D40168834641F480710160FFF7A2FD22
:100BA000064604E0FFF79EFD801B64284CD8DBF866
:100BB0000000C005F6D5E06801280AD008B1052874
:100BC00013D0286A20F001002862286A20F004006F
:100BD00002E0286A40F001002862E06841F2883BA8
:100BE00088B1FFF77FFD064609E0286A40F004005F
:100BF0002862EEE7FFF776FD811B59455BD8286A2E
:100C00008007F7D50BE0FFF76DFD064604E0FFF720
:100C100069FD811B59454ED8286A8007F7D41FB15A
:100C2000E86920F08050E861E069A8B36968C1F321
:100C30008101022946D00228484606D0C8F8600043
:100C4000FFF750FD044639E035E04746C8F860003C
:100C5000FFF748FD064604E0FFF744FD801B02282D
:100C600029D828688001F7D4206AB0F5803F05D1E3
:100C70006868A16820F4003008436860D4E908017E
:100C80000843696821F4741108436860C7F860A0DC
:100C9000FFF728FD044605E023E0FFF723FD001BD6
:100CA000022808D828688001F7D51AE0FFF71AFD56
:100CB000001B022802D90320BDE8F88F28688001B4
:100CC000F4D40EE00128F7D06868226A00F480317D
:100CD000914204D1616A00F47010884201D0012071
:100CE000EAE70020E8E7000000100240000042426E
:100CF00080044242140000200070004010B5401EE5
:100D0000B0F1807F01D3012010BD4FF0E02460617D
:100D10000F21601701F0E6FB0020A0610720206191
:100D2000002010BD7047704710B590F83C20012A94
:100D300022D0012280F83C20CA688C6822F44072DC
:100D400022434C6822F4806222430C6822F4006241
:100D500022430C6922F4805222434C6922F400524F
:100D60002243C969002322F480420A4301684A648D
:100D700080F83C30002010BD022010BD70B590F806
:100D80003C20012A26D0012580F83C50022280F820
:100D90003D2002685368946823F070060B68334363
:100DA00053600D4B02689A4208D0B2F1804F05D0D3
:100DB0000A4B9A4202D00A4B9A4204D1496824F065
:100DC00080031943916080F83D50002180F83C1069
:100DD000084670BD022070BD002C01400004004098
:100DE0000008004010B5040003D094F83D0010B195
:100DF00007E0012010BD002084F83C00204600F0F0
:100E00001FF8022084F83D00211D206801F08EF8B3
:100E1000012084F8460084F83E0084F83F0084F8FE
:100E2000400084F8410084F8420084F8430084F8CC
:100E3000440084F8450084F83D00002010BD000007
:100E400008B50068164A1749904207D1886940F4EE
:100E500000608861886900F400601EE0B0F1804F96
:100E600014D0114A904219D1C86940F00200C861FB
:100E7000C869002200F00200009011461D20FFF713
:100E80009DFCBDE808401D20FFF78ABCC86940F002
:100E90000100C861C86900F00100009008BD0000B1
:100EA000002C0140001002400004004070B50446D0
:100EB00090F83C000025012817D0012684F83C60FA
:100EC000022084F83D002068826822F0770222F434
:100ED0007F4282600868502838D00DDC20284FD02F
:100EE00005DC90B3102811D14AE0022070BD3028F3
:100EF00046D040280AD13BE060282FD070280DD082
:100F0000B0F5805F03D0B0F5005F12D0012584F802
:100F10003D60002084F83C00284670BDCB68D1E9D4
:100F20000121206801F045F82068816841F07701CF
:100F300009E0CB68D1E90121206801F03AF8206886
:100F4000816841F480418160E1E719E0CA6849683D
:100F5000206801F0E9F85021206806E0CA68496875
:100F6000206801F0F2F86021206801F02CF8CEE74B
:100F7000CA684968206801F0D7F840212068F4E782
:100F8000226801461046F0E7704770B504460068D5
:100F900001694FF00005C943890715D4C168C943E9
:100FA000890711D4E91E016101202077206880693A
:100FB0008007204602D0FFF7E7FF04E000F0F0F8DA
:100FC000204600F082F9257720680169C943490766
:100FD00017D4C168C943490713D46FF004010161F4
:100FE000022020772068806910F4407F204602D0DC
:100FF000FFF7CAFF04E000F0D3F8204600F065F9DF
:10100000257720680169C943090716D4C168C94317
:10101000090712D46FF008010161042020772068CD
:10102000C0698007204602D0FFF7AEFF04E000F061
:10103000B7F8204600F049F9257720680169C943CF
:10104000C90617D4C168C943C90613D46FF010018B
:101050000161082020772068C06910F4407F204695
:1010600002D0FFF791FF04E000F09AF8204600F06C
:101070002CF9257720680169C943C90708D1C168DF
:10108000C943C90704D1891E0161204600F06EF9E9
:1010900020680169C943090609D4C168C943090622
:1010A00005D46FF0800101612046FFF73BFE206808
:1010B0000169C943490609D4C168C943490605D431
:1010C0006FF040010161204600F051F9206801698C
:1010D000C94389060BD4C168C943890607D46FF098
:1010E000200101612046BDE87040FFF71CBE70BDC5
:1010F00010B586B000210091019102910391224C1C
:101100000168224B02222248A1420AD1996941F08A
:1011100004019961996901F0040104914FF410618F
:101120000EE0B1F1804F13D01A4CA1420ED1996953
:1011300041F004019961996901F004010491402191
:10114000CDE9001269460392FFF7D8F906B010BD49
:10115000986940F0080098619869694600F00800B5
:1011600004904FF40060CDE900020B480392FFF7B2
:10117000C5F90A49486820F4407040F0E06040F446
:1011800000704860E2E70000002C014000100240BF
:101190000008014000040040000C01400000014034
:1011A000704770B5044690F83C0000260D460128B3
:1011B0000FD0012084F83C006AB1042A1DD0082A0F
:1011C0002FD00C2A3FD00126002084F83C00304666
:1011D00070BD022070BD206800F0FEFE20688169AD
:1011E00041F0080181612068816921F00401816179
:1011F000206881692A69114311E0206800F018FF16
:101200002068816941F4006181612068816921F46D
:1012100080618161206881692A6941EA02218161D6
:10122000D2E7206800F032FF2068C16941F0080170
:10123000C1612068C16921F00401C1612068C169F0
:101240002A69114311E0206800F04CFF2068C16951
:1012500041F40061C1612068C16921F48061C1610C
:101260002068C1692A6941EA0221C161ACE710B571
:10127000040003D094F83D0010B107E0012010BD38
:10128000002084F83C00204600F01EF8022084F87C
:101290003D00211D206800F049FE012084F8460031
:1012A00084F83E0084F83F0084F8400084F8410050
:1012B00084F8420084F8430084F8440084F8450030
:1012C00084F83D00002010BD7047704710B50446FB
:1012D00049B104290AD008290BD094F8410001280B
:1012E0000AD0012010BD94F83E00F8E794F83F00C2
:1012F000F5E794F84000F2E7022041B3042929D031
:1013000008292AD084F841000122206800F044FE18
:1013100013492068884203D1426C42F4004242647F
:101320002068884208D0B0F1804F05D00D4988422E
:1013300002D00D49884204D1816801F007010629D5
:1013400003D0016841F001010160002010BD84F864
:101350003E00D9E784F83F00D6E784F84000D3E7A1
:10136000002C014000040040000800407047704716
:1013700070477047F8B5016804460868CA684B6949
:1013800010F00F0F4FF0000559D003F0010602F4E2
:101390009077374365D0C10705D0D10503D5616C7F
:1013A00041F001016164410705D5D90703D0616CA3
:1013B00041F002016164810705D5D90703D0616C52
:1013C00041F004016164010707D502F020013143B7
:1013D00003D0616C41F008016164616C00293AD06E
:1013E000800604D5900602D5204600F0EFFE206866
:1013F0004069616CC0F38010090700D460B32046D7
:1014000000F0BDFE20684069400621D520681430F8
:1014100050E8001F21F0400140E80012002AF5D1F9
:10142000E06BA8B16D494163E06BFEF7E5FF002872
:1014300011D0E06B416B01B0BDE8F0400847830676
:101440000FD593060DD52046BDE8F84000F0BEBE8E
:101450002046FFF78EFFF8BD2046FFF78AFF656440
:10146000F8BD266B2023012E7CD1C6067AD5D60680
:1014700078D508684868009048694FF00206400631
:1014800040D5E16B086840680004000CE8D0A28DEC
:101490008242E5D9E085886920282DD020680C306B
:1014A00050E8001F21F4807140E80012002AF5D1B5
:1014B0002068143050E8001F21F0010140E80012BC
:1014C000002AF5D12068143050E8001F21F04001B7
:1014D00040E80012002AF5D184F8423025632068E4
:1014E0000C3050E8001F21F0100140E80012002AE3
:1014F000F5D1E06BFEF75CFF6663A08DE18D401ACD
:1015000081B22AE0A08DE18D401A81B2E08D0028E1
:10151000A6D00029A4D020680C3050E8002F22F477
:10152000907240E80027002FF5D12068143050E871
:10153000002F22F0010240E80027002FF5D184F8A7
:101540004230256320680C3050E8002F22F0100252
:1015500040E80023002BF5D166632046FFF708FF23
:10156000F8BDFFE705062BD5150629D594F84100EF
:101570002128F5D1A068B0F5805F01D12069B0B114
:10158000206A411C2162216800784860E08C401E7E
:101590000004000CE084E3D12068C16821F08001E0
:1015A000C1602068C16841F04001C160D8E7206A8D
:1015B0000088C0F308004860206A801C2062E5E7CC
:1015C0004006CDD55006CBD5CA68204622F0400251
:1015D000CA6084F8413000F0E4F8C1E76F210008E8
:1015E00070B5040004D094F84100002510B106E065
:1015F000012070BD84F84050204600F023F82420DC
:1016000084F841002068C16821F40051C16020467F
:1016100000F03EFE2068016921F4904101612068DC
:10162000416921F02A0141612068C16841F40051FB
:10163000C1606564202084F8410084F8420065633D
:10164000002070BD30B585B0002400940194029450
:1016500003940068184988422CD11848816941F4E4
:1016600080418161816901F480410491816941F087
:10167000040181618069124D00F0040004904FF470
:1016800000700090022001900320039069462846D4
:10169000FEF734FF2815CDE9000469462846029478
:1016A000FEF72CFF002211462520FFF787F82520A2
:1016B000FFF776F805B030BD003801400010024059
:1016C0000008014090F84230202B01D002207047E2
:1016D00021B11AB10023036300F036BE0120704728
:1016E000074910B5884203D10648807801F036F8E2
:1016F00004490122BDE81040891C0148FFF7E2BF00
:1017000068010020000000202DE9F843044690F80D
:1017100041001F4615460E46202802D00220BDE893
:10172000F8837EB175B100206064212084F8410007
:10173000FEF7D8FFA5848046E584A068B0F5805FF9
:1017400002D003E00120EAE7206910B13546002607
:101750000EE000250CE08021204600F010FEA0B92C
:10176000ADB115F8010B21684860E08C401EE084A3
:10177000E08C43464FF0000200970028EBD14FF079
:101780004001204600F0FBFD30B10320C7E736F8EA
:10179000020BC0F30800E6E7202084F84100002097
:1017A000BDE77047FEE700002DE9F04101220C4D36
:1017B000D40321462846FEF78FFF0122094F160366
:1017C00031463846FEF788FF002231463846FEF79C
:1017D00083FF21462846BDE8F0410022FEF77CBF8A
:1017E00000080140000C014070B50122D1030948F6
:1017F000FEF772FF084D4FF4805400222146284620
:10180000FEF76AFF21462846BDE870400122FEF738
:1018100063BF000000080140000C014070B50122C8
:10182000064DD40321462846FEF756FF214628469A
:10183000BDE870400022FEF74FBF000000080140E5
:101840002DE9F0410E46224CFEF708FD054660608A
:101850003046FEF703FD29462060FEF7C7FC6061B5
:101860000546A66929463046FEF7C0FC2169FEF709
:10187000C3FC07462946E068FEF7BEFC80463146B9
:101880002846FEF7B3FCA168FEF7B6FC4146FEF71A
:101890005BFC3946FEF758FC216AFEF755FC014611
:1018A000A561606AFEF750FC6062A16AFEF7FEFC6B
:1018B00001D2A06A07E0E16A606AFEF701FD01D289
:1018C000E06A00E0606A6062BDE8F041FEF7D4BC07
:1018D0001C0000202DE9F04F85B0002445480094FD
:1018E000019402940394816941F01001816181693E
:1018F00001F010010491816941F020018161816949
:1019000001F020010491816941F004018161816944
:1019100001F004010491816941F00801816180694D
:10192000DFF8D49000F008004FF400550490002236
:1019300029464846FEF7D0FEDFF8C0A04FF4805895
:10194000012241465046FEF7C7FE0122DFF8B0B043
:10195000D70339465846FEF7BFFE009502260125FB
:101960000396CDE9015469464846FEF7C7FDA80332
:10197000CDE90004694648460294FEF7BFFD214CBC
:10198000009769464846CDE90145FEF7B7FD0620B8
:101990008DE8310069465846FEF7B0FDCDE9008577
:1019A000CDE9025669465046FEF7A8FDCDE900751F
:1019B000CDE9025669465846FEF7A0FD00221146C1
:1019C0000720FEF7FBFE0720FEF7EAFE0022114685
:1019D0000820FEF7F3FE0820FEF7E2FE0022114683
:1019E0002820FEF7EBFE2820FEF7DAFE05B0BDE862
:1019F000F08F00000010024000100140000C014078
:101A0000000801400000111010B596B000240F949A
:101A100010941194129413941C2168461494FEF7A8
:101A200088FB202107A8FEF784FB2E482C49016083
:101A30008F21C0E9011442F20F71C0E90314802123
:101A4000C0E90541FFF7CEF908B1FEF7AFFC4FF44E
:101A500080500F900FA92348FFF728FA08B1FEF72E
:101A6000A5FC2048FFF703FC08B1FEF79FFC139488
:101A700013A91C481494FFF781F908B1FEF796FCEE
:101A8000602000903220CDE9010403940494059471
:101A90000022694613480694FFF783FB08B1FEF75E
:101AA00085FC0C2269460F480194FFF77AFB08B1C8
:101AB000FEF77CFC0794089409944FF400500A94B4
:101AC000CDE90B4007A907480E94FFF72DF908B19F
:101AD000FEF76CFC0348FFF70BFB16B010BD0000CF
:101AE000002C01409000002010B58EB00024079417
:101AF000089409940A940B941C2168460C94FEF7F0
:101B000018FB1E484FF0804101608F21C0E901148D
:101B100042F20F71C0E9031480218161FFF762F97D
:101B200008B1FEF743FC4FF48050079007A9134813
:101B3000FFF7BCF908B1FEF739FC1048FFF797FB37
:101B400008B1FEF733FC0B940BA90C480C94FFF77B
:101B500015F908B1FEF72AFC6020CDE900040294D3
:101B60000C22694605480494FFF71BFB08B1FEF7F9
:101B70001DFC0248FFF7BCFA0EB010BDD8000020D3
:101B800010B58EB000240794089409940A940B941D
:101B90001C2168460C94FEF7CCFA1F481D490160D1
:101BA0008F21C0E9011442F20F71C0E903148021B2
:101BB0008161FFF717F908B1FEF7F8FB4FF4805089
:101BC000079007A91448FFF771F908B1FEF7EEFB7B
:101BD0001148FFF74CFB08B1FEF7E8FB0B940BA98B
:101BE0000D480C94FFF7CAF808B1FEF7DFFB602040
:101BF000CDE9000402940022694607480494FFF7E7
:101C0000D0FA08B1FEF7D2FB0348FFF771FA0EB025
:101C100010BD000000040040200100200C4810B559
:101C20000A4901604FF4E1314160002181600C22DA
:101C3000C160C0E904128161C161FFF7D1FC0028D5
:101C400003D0BDE81040FEF7B1BB10BD0038014025
:101C500068010020FEE7FEE770B50025002105F1D0
:101C6000B00000F089F80021084600F085F8002156
:101C7000102000F081F800240121002000F07CF801
:101C8000641CE4B2802CF7D36D1CEDB2082DE5D3B3
:101C900070BD10B54FF44870FEF7FAFB0021AE207E
:101CA00000F06AF80021084600F066F800211020D4
:101CB00000F062F80021402000F05EF80021B02022
:101CC00000F05AF80021812000F056F80021FF2092
:101CD00000F052F80021A12000F04EF80021A620CB
:101CE00000F04AF80021A82000F046F800213F202B
:101CF00000F042F80021C82000F03EF80021D32077
:101D000000F03AF80021084600F036F80021D5200E
:101D100000F032F80021802000F02EF80021D820B9
:101D200000F02AF80021052000F026F80021D92033
:101D300000F022F80021F12000F01EF80021DA2046
:101D400000F01AF80021122000F016F80021DB2024
:101D500000F012F80021302000F00EF800218D2054
:101D600000F00AF80021142000F006F80021BDE878
:101D70001040AF20AFF30080C0B209B100F08BBBC0
:101D800000F072BB70B51A4EB078FEF770FA194CBD
:101D900020603079FEF76BFA002525626561A56148
:101DA00060604FF07A50A0601348E06013482061F3
:101DB0001348E0621348A06213486062F078FEF7AF
:101DC00056FA303420607079FEF751FA2562656169
:101DD000A561E56160600D48A0600D48E0600D48B8
:101DE00020610D48E0620D48A0620D48606270BD40
:101DF0007C0000201C000020A69BC43B6F1283BA0D
:101E000000007A440000164400803B44CDCC4CBE18
:101E1000A69BC4BB6F12833A00409C440000FA4367
:101E200000806D44704770472DE9F0410E46224C0A
:101E3000FEF714FA054660603046FEF70FFA2946B1
:101E40002060FEF7D3F960610546A6692946304651
:101E5000FEF7CCF92169FEF7CFF907462946E0687D
:101E6000FEF7CAF9804631462846FEF7BFF9A16859
:101E7000FEF7C2F94146FEF767F93946FEF764F905
:101E8000216AFEF761F90146A561606AFEF75CF917
:101E90006062A16AFEF70AFA01D2A06A07E0E16A6D
:101EA000606AFEF70DFA01D2E06A00E0606A6062E3
:101EB000BDE8F041FEF7E0B94C000020FEF718BC89
:101EC00030B58FB028216846FEF733F914210AA8EF
:101ED000FEF72FF90120010400248DE8130004907F
:101EE0004FF4E010CDE90810022507956846FEF78B
:101EF00079FD08B172B6FEE70F20CDE90A054FF46F
:101F00008060CDE90C4002210AA80E94FEF788FCFF
:101F1000002801D072B6FEE70FB030BD7047000058
:101F20000148FFF732B8000020010020F0B5026838
:101F3000164C174D174E4FF08047A04205D0B842BF
:101F400003D0A84201D0B04203D122F070034A6806
:101F50001A43A04205D0B84203D0A84201D0B042F3
:101F600003D122F44073CA681A434B6922F08002FD
:101F70001A4302608A68C2620A688262A04201D182
:101F80000969016301214161F0BD0000002C01409D
:101F9000000400400008004010B501F01F010123BB
:101FA000046A8B409C430462036A8A4013430362C1
:101FB00010BD10B5846842EA032224F47F440A432A
:101FC0002243826010BD826822F070020A4342F010
:101FD000070181607047000030B5026A036A23F090
:101FE000010303624368846924F073050C682C4381
:101FF00022F002058A682A430C4DA84206D122F03D
:102000000805CA6842EA050222F0040207D14D69B8
:1020100023F4407345EA03058B6943EA05034360F3
:10202000846149684163026230BD0000002C0140B8
:1020300030B5036A026A22F01002026242688469C3
:102040000D6824F4E64444EA05248D6823F0200357
:1020500043EA05130C4DA84206D1CD6823F0800356
:1020600043EA051323F0400307D14D6922F440628F
:1020700042EA85028D6942EA8502426084614968CC
:102080008163036230BD0000002C014030B5026A5C
:10209000036A23F4807303624368C46922F4007204
:1020A00024F073050C682C438D6842EA05220C4D20
:1020B000A84206D1CD6822F4006242EA052222F449
:1020C000806207D14D6923F4405343EA05138D69BB
:1020D00043EA05134360C4614968C163026230BDCD
:1020E000002C014030B5046A026A22F48052026278
:1020F0004268C3690D6823F4E64343EA05238D680B
:1021000024F4005444EA0534064DA84204D14D6934
:1021100022F4804242EA85124260C3614968016448
:10212000046230BD002C014010B5046A036A23F03C
:1021300001030362836923F0F00343EA021324F0EE
:102140000A020A438361026210BD10B5036A046A81
:1021500024F010040462846923F0A00324F4704482
:1021600044EA023243EA01118261016210BD10B5F6
:10217000406A0021C185C184FFF7FBF810BD0168EA
:102180000C3151E8002F22F4907241E80023002B1B
:10219000F5D10168143151E8002F22F0010241E825
:1021A0000023002BF5D1016B012909D101680C3105
:1021B00051E8002F22F0100241E80023002BF5D156
:1021C000202180F8421000210163704708B590F883
:1021D0004210222901D0022008BD81684FF48053AB
:1021E000994201D1026922B1826A99421BD049B158
:1021F0000AE00268816A5268C2F308020A80816AB2
:10220000891C08E0016971B10168496801F07F012A
:102210001170816A491C8162C18D491E0904090C33
:10222000C18503D01BE001684968F1E70168CA680D
:1022300022F02002CA600168CA6822F48072CA6073
:1022400001684A6922F001024A61202180F84210A7
:1022500000214163026B012A03D0FFF741FA0020FD
:1022600008BD016301680C3151E8002F22F0100213
:1022700041E80023002BF5D101680A68D20602D597
:102280000A6849680091818DFFF772F8E7E700005E
:1022900070B5044600680169E26821F440511143B9
:1022A0000161A16820690143606901432068C26837
:1022B00041F20C639A430A43C26020684169A269F3
:1022C00021F44071114341611E492068884202D1C6
:1022D000FEF752FB01E0FEF73FFB00EBC00101EB14
:1022E0000011606864228000B1FBF0F3B3FBF2F3ED
:1022F0006FF018067343B1FBF0F5B1FBF0F605EB98
:102300008305322303EB0515B5FBF2F5B6FBF2F6B8
:1023100005F0F00505EB0615B1FBF0F6B1FBF0F0AA
:10232000B0FBF2F06FF01801484306EB800003EBBE
:102330000010B0FBF2F0216800F00F002844886024
:1023400070BD00000038014081628285C285002195
:102350004164222180F84210016921B10168CA68F4
:1023600042F48072CA6001684A6942F001024A611F
:102370000068C16841F02001C160002070472DE96C
:10238000F0411E46174688460446069D26E0681C16
:1023900024D025B1FEF7A6F9801BA8421ED92068DB
:1023A0000C3050E8001F21F4D07140E80012002AE0
:1023B000F5D12068143050E8001F21F0010140E8F9
:1023C0000012002AF5D1202084F8410084F8420050
:1023D000002084F840000320BDE8F08120680168F7
:1023E00038EA010004D00020B842D0D00020F3E742
:1023F0000120F9E70148FEF7BDBF00006801002099
:10240000FEE700002DE9F047154F04464FF4004663
:10241000002231463846FEF75FF9DFF84890002584
:102420004FF4805804F08000802816D000224146E6
:102430004846FEF751F96006040E0122314638463F
:10244000FEF74AF9002231463846FEF745F96D1C81
:10245000EDB2082DE6D3BDE8F0870122E7E70000E2
:1024600000080140000C014010B50446FFF79CF93C
:102470007820FFF7C7FFFFF7D1F90020FFF7C2FF71
:10248000FFF7CCF92046FFF7BDFFFFF7C7F9BDE81E
:102490001040FFF7A9B910B50446FFF785F9782079
:1024A000FFF7B0FFFFF7BAF94020FFF7ABFFFFF7E8
:1024B000B5F92046FFF7A6FFFFF7B0F9BDE81040D9
:1024C000FFF792B90FB4054B10B503A9044A02985F
:1024D00000F028F810BC5DF814FB00007926000815
:1024E000180000200907090E002804DB00F1E02095
:1024F00080F80014704700F00F0000F1E02080F831
:10250000141D704702E008C8121F08C1002AFAD142
:1025100070477047002001E001C1121F002AFBD163
:10252000704700002DE9FF4F89B09B460446002507
:1025300006E025280BD05A460B999047641C6D1C69
:1025400020780028F5D10DB02846BDE8F08F00278F
:10255000B8460122474900E0074314F8013F203BF9
:1025600002FA03F00842F7D120782E2819D114F886
:10257000010F47F004072A280ED06FF02F022078B1
:10258000A0F1300109290CD808EB880102EB4101C8
:1025900000EB0108641CF2E70A98641C50F8048BF5
:1025A0000A9020780028CED0642808D0692806D068
:1025B00075281ED05A460B9990476D1C58E00A9911
:1025C0004FF00A0901C90A91002802DA40422D2180
:1025D00002E0390504D52B218DF82010012103E0FC
:1025E000F90704D02021F7E78A4608AE0DE0002164
:1025F000FAE70A994FF00A0901C90A91F7E7494633
:10260000FDF768FE303106F8011D0028F7D1ADEB6B
:10261000060000F12009780701D44FF00108C845F1
:1026200002DDA8EB090000E000208046002706E05C
:1026300008A85A46C05D0B9990476D1C7F1C5745F2
:10264000F6DB04E030205A460B9990476D1CB8F138
:102650000001A8F10108F5DC05E016F8010B5A4667
:102660000B9990476D1CB9F10001A9F10109F4DC47
:10267000641C65E70928010013B54FF6FF730122BA
:1026800069460248FFF740F800981CBD6801002029
:10269000FEF736F8FFF714FCFFF71CF9FFF7B4F963
:1026A000FFF7BCFAFFF76CFAFFF71EFAFFF76AFBB9
:1026B000FFF7EFFAFFF7D0FA01221D491D48FFF797
:1026C00001F800211C48FEF701FE0C211B48FEF713
:1026D000FDFD194D40F2B63029684863174E40F2AF
:1026E000EE2031680864164C6179E078FFF79CFBB6
:1026F0002968486313A0FFF7E5FE2179A078FFF76A
:102700009FF8316808642179A078FFF78DFB0346B4
:10271000A07821796279411AE078821A00D5524274
:10272000002900DA494208A0FFF7CCFEDCE70000F0
:10273000020000206801002020010020D8000020B5
:102740007C0000200D0A000031593A25640A20322D
:10275000593A25640A2025640A20200030B41C4A16
:1027600000241C4B1178012531B1012908D0022920
:102770000FD0032919D01EE0A5281CD1157003E045
:10278000A62818D10221117051785854491C517053
:1027900017E051785854491CC9B251700E2901D81C
:1027A0005B280ED1032010700BE05078184410F80D
:1027B000010C5B2803D014705470D47001E01470C5
:1027C000D5700349012230BC891C0348FEF77ABF4B
:1027D000000000207C0000206801002001020203AC
:1027E0000405060708090A0B0C0D0E0F1010000057
:1027F00000000000000001020304060708090000B1
:102800000000010203040000282800080000002046
:102810001C00000004250008442800081C000020BB
:1028200094050000142500080000000000000000CE
:102830000100000010000000000000000024F4006F
:042840000000000094
:04000005080000ED02
:00000001FF
