:020000040800F2
:10000000B005002001010008631F0008E51B00087F
:10001000611F0008CF07000811270008000000003A
:10002000000000000000000000000000CD210008DA
:10003000D107000800000000CB210008CF210008F4
:100040001B0100081B0100081B0100081B01000820
:100050001B0100081B0100081B010008E90700083C
:10006000EF0700081B0100081B0100081B01000826
:100070001B0100081B0100081B0100081B010008F0
:100080001B0100081B0100081B0100081B010008E0
:100090001B0100081B0100081B0100081B010008D0
:1000A0001B0100081B0100081B0100081B010008C0
:1000B0001B010008312200081B0100081B01000879
:1000C0001B0100081B0100081B0100081B010008A0
:1000D0001B010008052700081B0100081B01000880
:1000E000D30700081B0100081B010008DFF80CD033
:1000F00000F044FB00480047DD2F0008B005002059
:100100000648804706480047FEE7FEE7FEE7FEE7B1
:10011000FEE7FEE7FEE7FEE7FEE7FEE72F22000828
:10012000ED000008202A04DB203A21FA02F0002129
:10013000704721FA02F3D040C2F1200291400843F7
:1001400019467047D2B201E000F8012B491EFBD2DC
:1001500070470022F6E710B513460A4604461946D2
:10016000FFF7F0FF204610BD2DE9FE4F804681EAE3
:100170000300C00F0C46009021F0004123F0004521
:10018000B8EB0200A94105D24046214690461C46E4
:100190000B46024623F00040104347D0270DC7F31B
:1001A0000A00C3F30A510290401A019040286BDA0A
:1001B000C3F3130040F4801B0098924620B1002343
:1001C000D2EB030A63EB0B0B01985946C0F14002D6
:1001D000504600F01DFA06460D4650465946019A13
:1001E00000F025FA10EB08006141002487EA115263
:1001F00084EAE7731A4340D0009A62B3019A012A55
:100200004FEA075215DC001B61EB02014FF0004280
:1002100002EA0752CDE90042001C41F58011324646
:100220002B4600F05CFA03B0BDE8F08F4046214653
:10023000F9E7001B61EB0201001C41F58013001877
:100240005B412018A2F5001747EB030140EAD57087
:10025000B6196D4111E06D084FEA360645EAC075E2
:100260004FEA0752001B61EB0201001C41F58011AF
:1002700049084FEA30000019514132462B4603B07D
:10028000BDE8F04F00F01CBA0098012240000023A6
:10029000D0EB020263EBE073009821464FEAE07472
:1002A000B8EB000061EB0401E9E783F000435BE792
:1002B00081F0004158E72DE9FE4F81EA030404F084
:1002C000004421F0004100944FF0000B23F0004364
:1002D00050EA01045ED052EA03045BD0C3F30A542F
:1002E000C1F30A552C44A4F2F3340194A0FB025448
:1002F000C1F3130141F48011C3F3130343F48013DA
:1003000001FB024400FB034E840A970A44EA81542D
:1003100047EA8357A4FB076802958D0A05FB07850A
:100320004FEA932C04FB0C542705029D4FEA065814
:1003300047EA1637B5EB08056EEB070C870E920EF1
:1003400047EA811742EA8312A7FB0201B6EB0B01D1
:1003500064EB00042B0D43EA0C335E1844EB1C5095
:10036000DA465146E7FB0201C5F313044FEA0B33AB
:1003700043EA14534FEA0432019C43EA0603A4F112
:100380000C040294009CCDE900B400F0A8F903B07D
:10039000BDE8F08F00200146F9E72DE9F04D81EA34
:1003A000030404F0004B21F0004514464FF0000A0E
:1003B00023F0004150EA050220D054EA01021DD08A
:1003C000C5F30A570246C5F31303C1F31300C1F383
:1003D0000A5640F4801543F48013A7EB0608101B5F
:1003E000D64608F2FD3873EB050002D308F1010888
:1003F00001E092185B41B8F1000F03DA00200146DA
:10040000BDE8F08D00204FF48011064684460EE0D2
:10041000171B73EB050705D3121B63EB050306439C
:100420004CEA010C49084FEA300092185B4150EA4F
:100430000107EDD152EA030012D082EA040083EAF8
:100440000501084305D0101BAB4106D20122002351
:1004500006E000224FF0004302E06FF0010253106B
:100460001AEB06004CEB085110EB0A0041EB0B01B4
:10047000BDE8F04D00F024B90EB5C10F80EAE07080
:100480000844CA07002140F233438DE80E000A46B3
:100490000B4600F024F903B000BD0EB540F2334125
:1004A00002910021CDE900110A460B4600F017F930
:1004B00003B000BD70B5C1F30A5201F0004500243D
:1004C000C1F3130140F2FF3341F480119A4201DA83
:1004D000002070BD40F233439A42A2F2334203DC63
:1004E0005242FFF71FFE00E090402C43F1D0404203
:1004F00070BDC1F30A5210B5C1F3130140F2FF33CE
:1005000041F480119A4201DA002010BD40F23343D9
:100510009A42A2F2334203DC5242FFF703FE10BDBF
:10052000904010BD00F0004230F000400AD0C10DF4
:1005300001F56071C0F3160042EA0151C20840079C
:1005400011437047002001467047000030B5041E7B
:1005500071F1000404DB4FF00044404264EB010100
:10056000141E73F1000405DB1C464FF00043524299
:1005700063EB04038B4208BF824230BD30B5041EDA
:1005800071F1000404DB4FF00044404264EB0101D0
:10059000141E73F1000405DB1C464FF00043524269
:1005A00063EB0403994208BF904230BD01F0004361
:1005B00030B421F0004150EA010206D00A0DA2F544
:1005C0006072C1F31301002A02DC30BC00207047C6
:1005D000440F44EAC104C100E01830BC00EBC25033
:1005E00000F037B830B50B46014600202022012428
:1005F00009E021FA02F59D4205D303FA02F5491BF1
:1006000004FA02F52844151EA2F10102F1DC30BD06
:10061000202A04DB203A00FA02F1002070479140C2
:10062000C2F1200320FA03F3194390407047202AB7
:1006300006DBCB17203A41FA02F043EAE07306E00A
:1006400041FA02F3D040C2F120029140084319461A
:1006500070470029A8BF7047401C490008BF20F020
:100660000100704710B4B0FA80FC00FA0CF050EAB8
:10067000010404BF10BC704749B1CCF1200421FA39
:1006800004F411FA0CF118BF012121430843A3EB34
:100690000C01CB1D4FEA00614FEA102042BF002041
:1006A00010BC704700EBC35010440029A4BF10BC1D
:1006B0007047401C490008BF20F0010010BC704783
:1006C00010B5141E73F1000408DA401C41F100015A
:1006D00092185B411A4301D120F0010010BD2DE9B1
:1006E000F04D92469B4611B1B1FA81F202E0B0FAA8
:1006F00080F220329046FFF78BFF04460F4640EA17
:100700000A0041EA0B0153465A46084313D01146EA
:1007100053EA010019D0C8F140025046FFF702FD2C
:1007200005460E46504659464246FFF771FF0843BC
:1007300005D0012004E020463946BDE8F08D0020B8
:10074000054346EAE0762C4337430A986305E40AFA
:10075000A0EB08000022FD0A44EA47540A3002D503
:1007600000200146E9E7010510196941DDE9084566
:1007700000196941BDE8F04DA2E70000064C074DA5
:1007800006E0E06840F0010394E807009847103461
:10079000AC42F6D3FFF7AEFC284F0008484F0008E4
:1007A00070B521F0004303430CD0C1F30A55002477
:1007B000D5EB040564EB0403D617AD1AB34102DB95
:1007C0000020014670BD201841EB025170BDFEE7CC
:1007D000704710B54FF4804000F0BAF8BDE8104003
:1007E0004FF4004000F0B4B8022000F0B1B804208B
:1007F00000F0AEB872B6FEE710B590F821100022F6
:10080000022905D00421816380F82020012010BD39
:1008100001680B6823F00E030B6001680B6823F07E
:1008200001030B6090F84030012404FA03F1C36B1C
:10083000596080F8214080F82020104610BD00004B
:1008400010B590F821100024022903D004218163FF
:1008500001243DE001680A6822F00E020A60016886
:100860000A6822F001020A601A4A0168914201D125
:10087000012121E0174A1432914201D110211BE0DD
:10088000144A2832914201D1891515E0114A3C32AF
:10089000914201D189140FE00E4A5032914202D1A7
:1008A0004FF4803108E00B4A6432914202D14FF498
:1008B000801101E04FF08071064A083A5160012131
:1008C00080F82110002180F82010416B01B1884789
:1008D000204610BD0800024070B5044600F038F90B
:1008E0000546601C02D004480078044400F030F94A
:1008F000401BA042FAD370BD2800002070B5012231
:1009000054030E4DB0F5804F10D0B0F5004F0FD00E
:10091000022810D0042810D10948027001F022FBEF
:1009200021462846BDE8704000F004B9054800E0C3
:1009300005480270F4E70548FBE770BD0010014070
:100940002500002022000020230000202400002099
:10095000044910B50A68024202D00860FFF7CEFFD2
:1009600010BD0000140401402DE9F84FDFF8A491F8
:100970000024A9F1040B23464FF00F0809F1040AE3
:10098000ABF1040EBEE00127A7403A40BA4272D153
:10099000DFF884C14D68A5EB0C0665452BD00DDC56
:1009A000032D34D005DC35B3012D19D0022D2FD104
:1009B0001BE0112D16D0122D2AD119E0B6F5881F93
:1009C00019D006DCB6F5803F15D0B6F5801F1FD1D3
:1009D00011E0B6F5001F0ED0B6F5041F18D10AE0DD
:1009E000CB6815E0CB681B1D12E0CB6808330FE025
:1009F000CB680C330CE08B682BB1012B4FF0080354
:100A000003D0476104E0042302E0076100E0002313
:100A1000FF2A01D8064601E000F104064FEA8405EA
:100A200001D9A5F12005376808FA05FC27EA0C076B
:100A300003FA05F547EA050737604D68ED0060D514
:100A4000364DAE6946F00106AE61AD6924F003068D
:100A500005F001050095324D7719BE68A5072D0FE9
:100A600008FA05FC26EA0C06DFF8B8C0604503D199
:100A70004FF0000C17E044E0DFF8ACC0604502D155
:100A80004FF0010C0FE0DFF8A4C0604502D14FF039
:100A9000020C08E0DFF898C0604502D14FF0030C6B
:100AA00001E04FF0040C0CFA05FC4CEA060CC7F808
:100AB00008C04D68D9F80060ED024D4601D51643D7
:100AC00000E096432E604D68DAF80060AD025546AE
:100AD00001D5164300E096432E604D68DBF80060B8
:100AE000AD035D4601D5164300E096432E604D6888
:100AF000DEF80060ED03754601D5164300E096432D
:100B00002E60641C0A6832FA04F57FF43CAFBDE83D
:100B1000F88F00000804014000001110001002408E
:100B20000000014000080140000C0140001001409D
:100B300000140140C26821EA02030A4043EA02416C
:100B4000016170470AB1016170470904FBE70000C9
:100B50000148806870470000280000200248816832
:100B6000027811448160704728000020074810B5C2
:100B7000016841F010010160032000F075F80F20BA
:100B800000F006F800F024F8002010BD002002401C
:100B900070B50D4D04464FF47A712878B1FBF0F032
:100BA0000A490968B1FBF0F000F0DEFA48B9102CF0
:100BB00007D200222146501E00F036F800206C605B
:100BC00070BD012070BD000028000020340000200E
:100BD0000C4808B5816941F001018161816901F02A
:100BE00001010091C16941F08051C161C0690649AC
:100BF00000F080500090486820F0E06040F0007005
:100C0000486008BD0010024000000140002809DBD8
:100C100000F01F02012191404009800000F1E02016
:100C2000C0F8001170470000F0B40E4B1B68C3F30E
:100C30000223C3F10704042C00D904241D1D072D31
:100C400001D2002300E0DB1E012606FA04F56D1E2A
:100C50000D409D409E40761E164045EA0601F0BCC0
:100C600001F0F0BD0CED00E0064A00F0070110684D
:100C70004FF6FF03184040EA012003490843106083
:100C8000704700000CED00E00000FA052DE9F04788
:100C90000D46040067D0DFF81881D8F8000000F096
:100CA0000700A8420CD2D8F8001021F00701294310
:100CB000C8F80010D8F8000000F00700A84252D190
:100CC00020683C4E810712D5400703D5706840F478
:100CD000E06070602078000703D5706840F46050D1
:100CE00070607068A16820F0F000084370602078A0
:100CF000C00727D06068012810D03168022810D0C2
:100D0000890700292FDA716821F00301014371601E
:100D1000FFF71EFF074641F288390CE0316889036E
:100D2000EFE78901EDE7FFF713FFC11B494502D942
:100D30000320BDE8F0877068616800F00C00B0EB3C
:100D4000810FF0D1D8F80010404601F00701A94208
:100D50000BD9016821F0070129430160006800F008
:100D60000700A84201D00120E3E72078400705D51D
:100D70007068E16820F4E060084370602078000744
:100D800006D57068216920F4605040EAC1007060A7
:100D900000F038F87168084AC1F30311515CC8408B
:100DA0000649086006480068FFF7F2FE0020C0E729
:100DB00000200240001002406A4E0008340000206B
:100DC0002C0000200448054900684968044AC1F322
:100DD0000221515CC84070473400002000100240DE
:100DE0007A4E00080448054900684968044AC1F37E
:100DF000C221515CC84070473400002000100240FE
:100E00007A4E00080E4B59680E4801F00C02042A75
:100E100011D0082A0FD10C48C1F38342C903805C6A
:100E20000AD55968084AC1F34041921E515C054AEF
:100E30005043B0FBF1F0704704494843704700004D
:100E40000010024000127A005A4E000800093D00CE
:100E50002DE9F84F04006FD02078BE4DC00747D071
:100E60006868C0F38100012807D06868C0F381007A
:100E7000022809D16868C00306D52868800337D5E1
:100E800060680028E7D033E06068B0F5803F0BD0A1
:100E900010B1B0F5A02F11D0286820F48030286060
:100EA000286820F4802002E0286840F48030286020
:100EB000606888B1FFF74CFE064609E0286840F4F8
:100EC00080202860F0E7FFF743FE801B642873D87A
:100ED00028688003F7D50BE0FFF73AFE064604E0EA
:100EE000FFF736FE801B6428F1D828688003F7D40A
:100EF0002078DFF8648280074FF0010A4FF0000984
:100F000039D5686810F00C0F07D06868C0F381000D
:100F1000022809D16868C00306D42868800714D560
:100F20002069012808D110E02069B0B1C8F800A0FC
:100F3000FFF70EFE064605E007E1FFF709FE801BFE
:100F40000228C4D828688007F7D52868616920F08E
:100F5000F80040EAC10028600DE0C8F80090FFF7F3
:100F6000F7FD064604E0FFF7F3FD801B022823D8B7
:100F700028688007F7D4207800072CD57748A16926
:100F8000D9B1C0F800A0FFF7E3FD064604E0FFF783
:100F9000DFFD801B02280FD8686A8007F7D57048EC
:100FA0004FF4FA510068B0FBF1F0009000BF0098D8
:100FB000411E0091FAD20EE07CE0C0F80090FFF7ED
:100FC000C7FD064604E0FFF7C3FD801B022871D869
:100FD000686A8007F7D4207840075BD5E869002766
:100FE000C00008D4E86940F08050E861E869012752
:100FF00000F0805000905B480168C90511D4016879
:10100000834641F480710160FFF7A2FD064604E0CB
:10101000FFF79EFD801B64284CD8DBF80000C0055C
:10102000F6D5E06801280AD008B1052813D0286A4F
:1010300020F001002862286A20F0040002E0286AFB
:1010400040F001002862E06841F2883B88B1FFF778
:101050007FFD064609E0286A40F004002862EEE7BA
:10106000FFF776FD811B59455BD8286A8007F7D5C5
:101070000BE0FFF76DFD064604E0FFF769FD811BFD
:1010800059454ED8286A8007F7D41FB1E86920F087
:101090008050E861E069A8B36968C1F38101022961
:1010A00046D00228484606D0C8F86000FFF750FD39
:1010B000044639E035E04746C8F86000FFF748FDD0
:1010C000064604E0FFF744FD801B022829D8286863
:1010D0008001F7D4206AB0F5803F05D16868A16827
:1010E00020F4003008436860D4E9080108436968C7
:1010F00021F4741108436860C7F860A0FFF728FD69
:10110000044605E023E0FFF723FD001B022808D872
:1011100028688001F7D51AE0FFF71AFD001B0228A6
:1011200002D90320BDE8F88F28688001F4D40EE0CE
:101130000128F7D06868226A00F48031914204D116
:10114000616A00F47010884201D00120EAE70020B3
:10115000E8E70000001002400000424280044242E2
:10116000340000200070004010B5401EB0F1807FB8
:1011700001D3012010BD4FF0E02460610F21601702
:1011800001F060FB0020A06107202061002010BD5D
:101190007047704710B590F83C20012A22D00122F8
:1011A00080F83C20CA688C6822F4407222434C6864
:1011B00022F4806222430C6822F4006222430C690C
:1011C00022F4805222434C6922F400522243C9691E
:1011D000002322F480420A4301684A6480F83C30CC
:1011E000002010BD022010BD70B590F83C20012AEF
:1011F00026D0012580F83C50022280F83D2002686C
:101200005368946823F070060B68334353600D4BAA
:1012100002689A4208D0B2F1804F05D00A4B9A4238
:1012200002D00A4B9A4204D1496824F08003194342
:10123000916080F83D50002180F83C10084670BD58
:10124000022070BD002C0140000400400008004056
:1012500010B5040003D094F83D0010B107E0012060
:1012600010BD002084F83C00204600F01FF802204A
:1012700084F83D00211D206800F0E0FF012084F883
:10128000460084F83E0084F83F0084F8400084F86B
:10129000410084F8420084F8430084F8440084F854
:1012A000450084F83D00002010BD000008B500682E
:1012B000104A1149904208D1886940F40060886161
:1012C000886900F40060009008BD0C4A9042FBD190
:1012D000C86940F00200C861C869002200F002003D
:1012E000009011461D20FFF79FFCBDE808401D201F
:1012F000FFF78CBC002C01400010024000040040AD
:1013000070B5044690F83C000025012817D001264E
:1013100084F83C60022084F83D002068826822F056
:10132000770222F47F4282600868502838D00DDCB2
:1013300020284FD005DC90B3102811D14AE00220BC
:1013400070BD302846D040280AD13BE060282FD01D
:1013500070280DD0B0F5805F03D0B0F5005F12D0DB
:10136000012584F83D60002084F83C00284670BDCB
:10137000CB68D1E90121206800F0A3FF20688168D3
:1013800041F0770109E0CB68D1E90121206800F044
:1013900098FF2068816841F480418160E1E719E0AD
:1013A000CA684968206801F047F85021206806E0C3
:1013B000CA684968206801F050F86021206800F090
:1013C0008AFFCEE7CA684968206801F035F84021F5
:1013D0002068F4E7226801461046F0E7704770B5D0
:1013E0000446006801694FF00005C943890715D418
:1013F000C168C943890711D4E91E01610120207722
:10140000206880698007204602D0FFF7E7FF04E0EC
:1014100000F0BEF8204600F050F9257720680169F9
:10142000C943490717D4C168C943490713D46FF0AA
:1014300004010161022020772068806910F4407F58
:10144000204602D0FFF7CAFF04E000F0A1F82046D2
:1014500000F033F9257720680169C943090716D4DC
:10146000C168C943090712D46FF008010161042063
:1014700020772068C0698007204602D0FFF7AEFFC2
:1014800004E000F085F8204600F017F92577206881
:101490000169C943C90617D4C168C943C90613D431
:1014A0006FF010010161082020772068C06910F4F6
:1014B000407F204602D0FFF791FF04E000F068F87B
:1014C000204600F0FAF8257720680169C943C9076A
:1014D00008D1C168C943C90704D1891E01612046EA
:1014E00000F03CF920680169C943090609D4C168C4
:1014F000C943090605D46FF0800101612046FFF75A
:1015000047FE20680169C943490609D4C168C94337
:10151000490605D46FF040010161204600F01FF933
:1015200020680169C94389060BD4C168C94389068B
:1015300007D46FF0200101612046BDE87040FFF73D
:1015400028BE70BD00B585B00021009101910291C7
:10155000039100680B49884212D10B48816941F020
:10156000040181618069694600F0040004904FF431
:10157000106000900220019003900448FFF7F4F9F6
:1015800005B000BD002C01400010024000080140E1
:10159000704770B5044690F83C0000260D460128BF
:1015A0000FD0012084F83C006AB1042A1DD0082A1B
:1015B0002FD00C2A3FD00126002084F83C00304672
:1015C00070BD022070BD206800F08EFE2068816929
:1015D00041F0080181612068816921F00401816185
:1015E000206881692A69114311E0206800F0A8FE93
:1015F0002068816941F4006181612068816921F47A
:1016000080618161206881692A6941EA02218161E2
:10161000D2E7206800F0C2FE2068C16941F00801ED
:10162000C1612068C16921F00401C1612068C169FC
:101630002A69114311E0206800F0DCFE2068C169CE
:1016400041F40061C1612068C16921F48061C16118
:101650002068C1692A6941EA0221C161ACE710B57D
:10166000040003D094F83D0010B107E0012010BD44
:10167000002084F83C00204600F01EF8022084F888
:101680003D00211D206800F0D9FD012084F84600AE
:1016900084F83E0084F83F0084F8400084F841005C
:1016A00084F8420084F8430084F8440084F845003C
:1016B00084F83D00002010BD7047704710B5044607
:1016C00049B104290AD008290BD094F84100012817
:1016D0000AD0012010BD94F83E00F8E794F83F00CE
:1016E000F5E794F84000F2E7022041B3042929D03D
:1016F00008292AD084F841000122206800F0D4FD96
:1017000013492068884203D1426C42F4004242648B
:101710002068884208D0B0F1804F05D00D4988423A
:1017200002D00D49884204D1816801F007010629E1
:1017300003D0016841F001010160002010BD84F870
:101740003E00D9E784F83F00D6E784F84000D3E7AD
:10175000002C014000040040000800407047704722
:1017600070477047F8B5016804460868CA684B6955
:1017700010F00F0F4FF000055AD003F0010602F4ED
:101780009077374365D0C10705D0D10503D5616C8B
:1017900041F001016164410705D5D90703D0616CAF
:1017A00041F002016164810705D5D90703D0616C5E
:1017B00041F004016164010707D502F020013143C3
:1017C00003D0616C41F008016164616C00293BD079
:1017D000800604D5900602D5204600F07FFE2068E2
:1017E0004069616CC0F3801001F00801014320469C
:1017F0002BD000F04CFE20684069400621D52068BF
:10180000143050E8001F21F0400140E80012002A87
:10181000F5D1E06BA8B16D494163E06BFFF710F8BB
:10182000002811D0E06B416B01B0BDE8F0400847E3
:1018300083060ED593060CD52046BDE8F84000F08F
:101840004DBE2046FFF78DFFF8BDFFF78AFF6564A8
:10185000F8BD266B2023012E7CD1C6067AD5D6068C
:1018600078D508684868009048694FF0020640063D
:1018700040D5E16B086840680004000CE8D0A28DF8
:101880008242E5D9E085886920282DD020680C3077
:1018900050E8001F21F4807140E80012002AF5D1C1
:1018A0002068143050E8001F21F0010140E80012C8
:1018B000002AF5D12068143050E8001F21F04001C3
:1018C00040E80012002AF5D184F8423025632068F0
:1018D0000C3050E8001F21F0100140E80012002AEF
:1018E000F5D1E06BFEF788FF6663A08DE18D401AAD
:1018F00081B22AE0A08DE18D401A81B2E08D0028EE
:10190000A6D00029A4D020680C3050E8002F22F483
:10191000907240E80027002FF5D12068143050E87D
:10192000002F22F0010240E80027002FF5D184F8B3
:101930004230256320680C3050E8002F22F010025E
:1019400040E80023002BF5D166632046FFF708FF2F
:10195000F8BDFFE705062BD5150629D594F84100FB
:101960002128F5D1A068B0F5805F01D12069B0B120
:10197000206A411C2162216800784860E08C401E8A
:101980000004000CE084E3D12068C16821F08001EC
:10199000C1602068C16841F04001C160D8E7206A99
:1019A0000088C0F308004860206A801C2062E5E7D8
:1019B0004006CDD55006CBD5CA68204622F040025D
:1019C000CA6084F8413000F00CF9C1E77F240008B8
:1019D00070B5040004D094F84100002510B106E071
:1019E000012070BD84F84050204600F023F82420E8
:1019F00084F841002068C16821F40051C16020468C
:101A000000F0CEFD2068016921F490410161206859
:101A1000416921F02A0141612068C16841F4005107
:101A2000C1606564202084F8410084F84200656349
:101A3000002070BD70B586B000240094019402941B
:101A4000039401682B482A4E022203230515B14254
:101A500029D1816941F480418161816901F480412A
:101A60000491816941F0040181618069224E00F096
:101A7000040004901002CDE9000269460393304649
:101A8000FEF772FFCDE90054694630460294FEF736
:101A90006BFF002211462520FFF7C6F82520FFF72F
:101AA000B5F806B070BD154EB142FAD1C16941F426
:101AB0008021C161C16901F480210491816941F0F3
:101AC000080181618069CDE9005200F00800CDE98C
:101AD00003300B4D69462846FEF746FFE814CDE972
:101AE0000004694628460294FEF73EFFD9E700004D
:101AF000003801400010024000080140004800404A
:101B0000000C014090F84230202B01D00220704799
:101B100021B11AB10023036300F09EBD012070477C
:101B2000074910B5884203D10648C07802F0EAFAA6
:101B300004490122BDE81040C91C0148FFF7E2BF7B
:101B4000200100200C0000202DE9F843044690F805
:101B500041001F4615460E46202802D00220BDE84F
:101B6000F8837EB175B100206064212084F84100C3
:101B7000FEF7EEFFA5848046E584A068B0F5805F9F
:101B800002D003E00120EAE7206910B135460026C3
:101B90000EE000250CE08021204600F078FDA0B981
:101BA000ADB115F8010B21684860E08C401EE0845F
:101BB000E08C43464FF0000200970028EBD14FF035
:101BC0004001204600F063FD30B10320C7E736F83E
:101BD000020BC0F30800E6E7202084F84100002053
:101BE000BDE77047FEE700002DE9F04101220C4DF2
:101BF000D40321462846FEF7A5FF0122094F16030C
:101C000031463846FEF79EFF002231463846FEF741
:101C100099FF21462846BDE8F0410022FEF792BF19
:101C200000080140000C014070B50122D1030948B1
:101C3000FEF788FF084D4FF48054002221462846C5
:101C4000FEF780FF21462846BDE870400122FEF7DE
:101C500079BF000000080140000C014070B501226E
:101C6000064DD40321462846FEF76CFF2146284640
:101C7000BDE870400022FEF765BF0000000801408B
:101C80002DE9F04F85B0002442480094019402945D
:101C90000394816941F010018161816901F01001B3
:101CA0000491816941F020018161816901F0200185
:101CB0000491816941F004018161816901F00401AD
:101CC0000491816941F0080181618069DFF8C89061
:101CD00000F008004FF400550490002229464846C1
:101CE000FEF730FF0122DFF8B4A01603314650465C
:101CF000FEF728FFDFF8A8B04FF400480122414664
:101D00005846FEF71FFF00950125CDE90154022436
:101D1000694648460394FEF727FE224F4FF44040A1
:101D2000CDE90007694602954846FEF71DFE0620EC
:101D3000CDE90007694602955846FEF715FECDE944
:101D40000065CDE9025469465046FEF70DFECDE927
:101D50000085CDE9025469465846FEF705FE00228B
:101D600011460720FEF760FF0720FEF74FFF002215
:101D700011460820FEF758FF0820FEF747FF002213
:101D800011462820FEF750FF2820FEF73FFF05B040
:101D9000BDE8F08F0010024000100140000C01402F
:101DA000000801400000111010B596B000240F94F7
:101DB00010941194129413941C2168461494FEF705
:101DC000C8F9202107A8FEF7C4F92E482C49016064
:101DD0008F21C0E9011442F20F71C0E90314802180
:101DE000C0E90541FFF734FA08B1FEF703FD4FF4EF
:101DF00080500F900FA92348FFF782FA08B1FEF731
:101E0000F9FC2048FFF72BFC08B1FEF7F3FC139414
:101E100013A91C481494FFF7E7F908B1FEF7EAFC90
:101E2000602000903220CDE90104039404940594CD
:101E30000022694613480694FFF7ABFB08B1FEF792
:101E4000D9FC0C2269460F480194FFF7A2FB08B1A8
:101E5000FEF7D0FC0794089409944FF400500A94BC
:101E6000CDE90B4007A907480E94FFF793F908B195
:101E7000FEF7C0FC0348FFF765FB16B010BD00007D
:101E8000002C01409000002010B586B000241748B7
:101E900000940194029403940494134905940160FE
:101EA0004821C0E901144FF6FF71C0E903148021F5
:101EB0008161FFF7CDF908B1FEF79CFC4FF480502B
:101EC000009069460948FFF71BFA08B1FEF792FC3B
:101ED000049404A905480594FFF786F9002801D069
:101EE000FEF788FC06B010BD00040040D8000020BA
:101EF0000C4810B50A4901604FF4E13141600021FE
:101F000081600C22C160C0E904128161C161FFF7E8
:101F10005FFD002803D0BDE81040FEF76BBC10BD8C
:101F200000380140200100200C4810B50A4901602A
:101F30004FF4E1314160002181600C22C160C0E9B1
:101F400004128161C161FFF743FD002803D0BDE8A1
:101F50001040FEF74FBC10BD004800406801002053
:101F6000FEE7FEE770B50025002105F1B00000F0A6
:101F700026F90021084600F022F90021102000F087
:101F80001EF900240121002000F019F9641CE4B2BC
:101F9000802CF7D36D1CEDB2082DE5D370BD10B5C4
:101FA0004FF44870FEF798FC0021AE2000F007F9CE
:101FB0000021084600F003F90021102000F0FFF88E
:101FC0000021402000F0FBF80021B02000F0F7F8DD
:101FD0000021812000F0F3F80021FF2000F0EFF84D
:101FE0000021A12000F0EBF80021A62000F0E7F886
:101FF0000021A82000F0E3F800213F2000F0DFF8E6
:102000000021C82000F0DBF80021D32000F0D7F831
:102010000021084600F0D3F80021D52000F0CFF8C9
:102020000021802000F0CBF80021D82000F0C7F874
:102030000021052000F0C3F80021D92000F0BFF8EE
:102040000021F12000F0BBF80021DA2000F0B7F801
:102050000021122000F0B3F80021DB2000F0AFF8DF
:102060000021302000F0ABF800218D2000F0A7F80F
:102070000021142000F0A3F80021BDE81040AF209B
:1020800000F09DB810B50A460446002102F1B000E8
:1020900000F095F8102040EA1410002100F08FF8AD
:1020A00004F00F00BDE81040002100F088B80000E7
:1020B0002DE9F04115460E460746FFF7E3FF0F48AE
:1020C000002400EB85150121285D00F078F8641CE0
:1020D000E4B2102CF7D3761CF1B23846FFF7D2FFEA
:1020E00000242819012190F8200000F068F8641CF1
:1020F000E4B2102CF5D3BDE8F08100009849000847
:102100002DE9F041203A00240F468046D5B27F28C1
:1021100003D900208F1C8046FFB2102B394610D007
:10212000FFF7B0FF164905EB450001EB4005012123
:10213000285D00F044F8641CE4B2062CF7D3BDE837
:10214000F081FFF79FFF0F4E04EB05100121305C7B
:1021500000F035F8641CE4B2082CF5D37F1CF9B20A
:102160004046FFF78FFF002404EB051030440121A7
:10217000007A00F024F8641CE4B2082CF4D3DEE703
:1021800080410008A84300082DE9F0419846174611
:102190000E46044600250DE0434631462046FFF733
:1021A000AFFF0834E4B2782C02D90024B61CF6B292
:1021B0006D1CEDB27A5D002AEED1BDE8F081C0B2AF
:1021C00009B100F0F0BA00F0D7BA70477047FEF7D7
:1021D000C5BC30B58FB028216846FDF7BAFF142181
:1021E0000AA8FDF7B6FF0120010400248DE81300C2
:1021F00004904FF4E010CDE90810022507956846D9
:10220000FEF726FE08B172B6FEE70F20CDE90A05FB
:102210004FF48060CDE90C4002210AA80E94FEF72D
:1022200035FD002801D072B6FEE70FB030BD704713
:102230000148FFF7D4B80000D8000020F0B50268CC
:10224000164C174D174E4FF08047A04205D0B842AC
:1022500003D0A84201D0B04203D122F070034A68F3
:102260001A43A04205D0B84203D0A84201D0B042E0
:1022700003D122F44073CA681A434B6922F08002EA
:102280001A4302608A68C2620A688262A04201D16F
:102290000969016301214161F0BD0000002C01408A
:1022A000000400400008004010B501F01F010123A8
:1022B000046A8B409C430462036A8A4013430362AE
:1022C00010BD10B5846842EA032224F47F440A4317
:1022D0002243826010BD826822F070020A4342F0FD
:1022E000070181607047000030B5026A036A23F07D
:1022F000010303624368846924F073050C682C436E
:1023000022F002058A682A430C4DA84206D122F029
:102310000805CA6842EA050222F0040207D14D69A5
:1023200023F4407345EA03058B6943EA05034360E0
:10233000846149684163026230BD0000002C0140A5
:1023400030B5036A026A22F01002026242688469B0
:102350000D6824F4E64444EA05248D6823F0200344
:1023600043EA05130C4DA84206D1CD6823F0800343
:1023700043EA051323F0400307D14D6922F440627C
:1023800042EA85028D6942EA8502426084614968B9
:102390008163036230BD0000002C014030B5026A49
:1023A000036A23F4807303624368C46922F40072F1
:1023B00024F073050C682C438D6842EA05220C4D0D
:1023C000A84206D1CD6822F4006242EA052222F436
:1023D000806207D14D6923F4405343EA05138D69A8
:1023E00043EA05134360C4614968C163026230BDBA
:1023F000002C014030B5046A026A22F48052026265
:102400004268C3690D6823F4E64343EA05238D68F7
:1024100024F4005444EA0534064DA84204D14D6921
:1024200022F4804242EA85124260C3614968016435
:10243000046230BD002C014010B5046A036A23F029
:1024400001030362836923F0F00343EA021324F0DB
:102450000A020A438361026210BD10B5036A046A6E
:1024600024F010040462846923F0A00324F470446F
:1024700044EA023243EA01118261016210BD10B5E3
:10248000406A0021C185C184FFF76BF910BD016866
:102490000C3151E8002F22F4907241E80023002B08
:1024A000F5D10168143151E8002F22F0010241E812
:1024B0000023002BF5D1016B012909D101680C31F2
:1024C00051E8002F22F0100241E80023002BF5D143
:1024D000202180F8421000210163704708B590F870
:1024E0004210222901D0022008BD81684FF4805398
:1024F000994201D1026922B1826A99421BD049B145
:102500000AE00268816A5268C2F308020A80816A9E
:10251000891C08E0016971B10168496801F07F0117
:102520001170816A491C8162C18D491E0904090C20
:10253000C18503D01BE001684968F1E70168CA68FA
:1025400022F02002CA600168CA6822F48072CA6060
:1025500001684A6922F001024A61202180F8421094
:1025600000214163026B012A03D0FFF7D9FA002052
:1025700008BD016301680C3151E8002F22F0100200
:1025800041E80023002BF5D101680A68D20602D584
:102590000A6849680091818DFFF7E2F8E7E70000DB
:1025A00070B5044600680169E26821F440511143A6
:1025B0000161A16820690143606901432068C26824
:1025C00041F20C639A430A43C26020684169A269E0
:1025D00021F44071114341611E492068884202D1B3
:1025E000FEF700FC01E0FEF7EDFB00EBC00101EBA4
:1025F0000011606864228000B1FBF0F3B3FBF2F3DA
:102600006FF018067343B1FBF0F5B1FBF0F605EB84
:102610008305322303EB0515B5FBF2F5B6FBF2F6A5
:1026200005F0F00505EB0615B1FBF0F6B1FBF0F097
:10263000B0FBF2F06FF01801484306EB800003EBAB
:102640000010B0FBF2F0216800F00F002844886011
:1026500070BD00000038014081628285C285002182
:102660004164222180F84210016921B10168CA68E1
:1026700042F48072CA6001684A6942F001024A610C
:102680000068C16841F02001C160002070472DE959
:10269000F0411E46174688460446069D26E0681C03
:1026A00024D025B1FEF754FA801BA8421ED9206819
:1026B0000C3050E8001F21F4D07140E80012002ACD
:1026C000F5D12068143050E8001F21F0010140E8E6
:1026D0000012002AF5D1202084F8410084F842003D
:1026E000002084F840000320BDE8F08120680168E4
:1026F00038EA010004D00020B842D0D00020F3E72F
:102700000120F9E70148FFF72DB800002001002063
:10271000FEE700002DE9F047154F04464FF4004650
:10272000002231463846FEF70DFADFF848900025C2
:102730004FF4805804F08000802816D000224146D3
:102740004846FEF7FFF96006040E0122314638467E
:10275000FEF7F8F9002231463846FEF7F3F96D1C12
:10276000EDB2082DE6D3BDE8F0870122E7E70000CF
:1027700000080140000C014010B50446FFF734FA90
:102780007820FFF7C7FFFFF769FA0020FFF7C2FFC5
:10279000FFF764FA2046FFF7BDFFFFF75FFABDE8D9
:1027A0001040FFF741BA10B50446FFF71DFA782034
:1027B000FFF7B0FFFFF752FA4020FFF7ABFFFFF73C
:1027C0004DFA2046FFF7A6FFFFF748FABDE8104094
:1027D000FFF72ABA0FB4054B10B503A9044A0298B3
:1027E00000F0B2F810BC5DF814FB0000AD2F00083B
:1027F000380000200FB4084B10B504A902AA0398B2
:1028000000F0A2F8044602A9002000F047F9204693
:1028100010BC5DF814FB00009D2A0008490050EA36
:10282000C12018BF04204A0D18BF40F0010040F23B
:10283000FF72B2EB515F08BF40F00200012808BFF1
:10284000052070470907090E002804DB00F1E0208D
:1028500080F80014704700F00F0000F1E02080F8CD
:10286000141D70472DE9F0414F1E00EBC7010446CF
:10287000D1E9000115461E4637F006020DD02A4662
:102880003346FDF718FD7F1E04EBC703D3E9002391
:10289000FDF76AFC37F00602F1D1022F25D0042F94
:1028A00013D0062F18BFBDE8F0812A463346FDF746
:1028B00002FDD4E90A23FDF757FC2A463346FDF70B
:1028C000FAFCD4E90823FDF74FFC2A463346FDF70E
:1028D000F2FCD4E90623FDF747FC2A463346FDF710
:1028E000EAFCD4E90423FDF73FFC2A463346FDF712
:1028F000E2FCD4E90223FDF737FC2A463346FDF714
:10290000DAFCD4E90023BDE8F041FDF72DBC01223B
:10291000FDF746BFFDF728BC024A00201107FDF76E
:102920003FBF000001FDFFFF02E008C8121F08C101
:10293000002AFAD170477047002001E001C1121F40
:10294000002AFBD1704700002DE9FF4F89B09B465C
:102950000446002506E025280BD05A460B999047DF
:10296000641C6D1C20780028F5D10DB02846BDE808
:10297000F08F0027B8460122474900E0074314F8CA
:10298000013F203B02FA03F00842F7D120782E28BD
:1029900019D114F8010F47F004072A280ED06FF060
:1029A0002F022078A0F1300109290CD808EB88010A
:1029B00002EB410100EB0108641CF2E70A98641C79
:1029C00050F8048B0A9020780028CED0642808D0D4
:1029D000692806D075281ED05A460B9990476D1C61
:1029E00058E00A994FF00A0901C90A91002802DA51
:1029F00040422D2102E0390504D52B218DF820100D
:102A0000012103E0F90704D02021F7E78A4608AE48
:102A10000DE00021FAE70A994FF00A0901C90A916D
:102A2000F7E74946FDF7DEFD303106F8011D0028C5
:102A3000F7D1ADEB060000F12009780701D44FF083
:102A40000108C84502DDA8EB090000E0002080462F
:102A5000002706E008A85A46C05D0B9990476D1CF8
:102A60007F1C5745F6DB04E030205A460B9990470F
:102A70006D1CB8F10001A8F10108F5DC05E016F8BD
:102A8000010B5A460B9990476D1CB9F10001A9F151
:102A90000109F4DC641C65E7092801000A68531C7D
:102AA0000B6010707047002800DA40427047000049
:102AB0002DE9F84F04460D4621F00040009173497E
:102AC000814211DC7249884201DC06D12CB12046DA
:102AD0002946BDE8F84FFFF71ABF6E48002DCCBF5E
:102AE0006D496E49BDE8F88F6D49814211DD6D4930
:102AF0008142D8BF4FF0FF366DDD20462946FFF7F3
:102B00008DFE042808BFFFF707FF20462946BDE8D1
:102B1000F88F6549654F25F00045814233DD6449F2
:102B2000814219DD002632464FF080432046294677
:102B3000FDF71AFB80468A46012220462946FDF70A
:102B40002FFE00223B46FDF7B0FB42465346FDF701
:102B500024FC04460D463EE001260022BA463B46D0
:102B600020462946FDF700FB80460F4600225346CB
:102B700020462946FDF799FB42463B46FDF70DFCF2
:102B800004460D4627E04B4981421BDDDFF828A1B2
:102B900002260022534620462946FDF78CFB0022E0
:102BA0003B46FDF7E1FA80460F4600225346204699
:102BB0002946FDF77AFB42463B46FDF7EEFB04460D
:102BC0000D4608E0032622462B4600203B49FDF730
:102BD000E4FB04460D4622462B4610461946FDF7F7
:102BE0006AFB8B46824602460B46FDF764FB0746AE
:102BF0000246334888460B4606217844FFF732FEEA
:102C000052465B46FDF757FB82462E488B463A46B6
:102C1000434605217844FFF725FE3A464346FDF733
:102C20004AFB02460B46002E504659460CDAFDF789
:102C30009BFA22462B46FDF73EFB01B022462B466F
:102C4000BDE8F04FFDF734BBFDF78EFA22462B4668
:102C5000FDF731FB1C4A7A4402EBC603D3E900239B
:102C6000FDF723FB22462B46FDF71FFB174A7A444C
:102C700002EBC603D3E90023FDF71AFB009A002AF2
:102C8000B8BF81F00041BDE8F88F0000000010449B
:102C90000000F07F182D4454FB21F93FFB21F9BFC0
:102CA0000000DC3F0000203E0000F33F0000F03F4A
:102CB0000000E63F008003400000F83F0000F0BF46
:102CC000F2220000B02200004E2200001622000076
:102CD0002DE9F04D9446CCF1000423F000464CEA77
:102CE0000404524F46EAD4749A46884621F00042C2
:102CF000BC4206D8454240EA050442EAD474BC42CC
:102D000004D9BDE8F04D6246FFF704BEAAF1405574
:102D1000A5F17F6555EA0C040BD0022404EAAA74DD
:102D2000434DDFF810E144EAD87452EA000B04D0B6
:102D30000CE0BDE8F04DFFF7BBBE002C14BF012C2A
:102D4000BDE8F08D022C30D0032C32D056EA0C0BAB
:102D50000AD0BE4220D1BA4209D126F0804622F0E4
:102D600080423346114617E000291ADB25E0DFF8E0
:102D7000C8B0FB44002C04BFDBE90001BDE8F08DC6
:102D8000012C02BFDBE9000181F00041BDE8F08DBC
:102D9000022C0AD0032C0CD0BA4212D1B8F1000F89
:102DA0000BDA23482549BDE8F08D28462449BDE8C3
:102DB000F08D28467146BDE8F08D1D482149BDE8DB
:102DC000F08D921B12153C2AC4BF19481D490EDC18
:102DD000BAF1000FBEBF12F13C0F0020014606DB26
:102DE0006246FDF7DAFA21F00041FFF761FE002CA0
:102DF00008BFBDE8F08D012C04BF81F00041BDE8A3
:102E0000F08D114A114B022C07D0FDF74EFA2A46DD
:102E1000BDE8F04D0A4BFDF748BAFDF746FA2A46E1
:102E2000BDE8F04D064BFDF743BA00000000F07F0F
:102E3000182D4454FB2109C0AA210000FB21F9BF31
:102E4000FB210940FB21F93F075C143326A6A13C76
:102E5000821AC81A524300FB002070472DE9F04F38
:102E6000424C85B0E069FDF707FB05460E46A069B8
:102E7000FDF702FB024632200295CDE903600B46C6
:102E80000021CDE90011084600F0F8FF41F2707012
:102E9000FDF722FD6069FDF7EFFA82468946E06999
:102EA000FDF7EAFA06460F462069FDF7E5FA804687
:102EB0008B46A069FDF7E0FA1425CDE903958DE86E
:102EC000C00442465B4600F0D9FFE068FDF7D4FA43
:102ED00082460F466069FDF7CFFA06468946A0682C
:102EE000FDF7CAFA834688462069FDF7C5FACDE9A1
:102EF00003758DE840065A46434600F0BFFF606800
:102F0000FDF7BAFA82468B46E068FDF7B5FA8046CF
:102F100089462068FDF7B0FA06460F46A068FDF71F
:102F2000ABFACDE903B58DE8000732463B4600F029
:102F3000A5FFE069FDF7A0FA83468A466068FDF7C1
:102F40009BFA07468946A069FDF796FA0646884629
:102F50002068FDF791FACDE903A58DE8800A434684
:102F6000324600F08BFF05B0BDE8F08F5C0000201A
:102F70000D4A002311684B6211680B6843F001038E
:102F80000B6011684A6A8242FCD3086A41F211124E
:102F9000104207D1086A9210104203D1086820F04D
:102FA0000100086070470000D800002013B54FF6FC
:102FB000FF73012269460248FEF7C6FD00981CBD5A
:102FC0006801002030B5591ADDE90345A41A6143B0
:102FD000801AEA1A00FB021030BD000086B0FDF72F
:102FE000C5FDFFF7F6F8FEF74BFEFEF7DDFEFEF738
:102FF0007FFFFEF749FFFEF797FFFEF7D0FFFEF7D2
:10300000B1FF01224F495048FEF77CFD00214F4897
:10301000FEF754FB0C214D48FEF750FB00214C48B5
:10302000FEF74CFB494840F2023102681164006827
:103030004FF439714163434D464F0026ED1EA87889
:10304000012802D0022853D060E002AA00204149A2
:1030500082E84300CDE9000002463B46014600F00D
:103060000DFF02AA642400203B4982E8130039497D
:103070003B46CDE900010246194600F0FFFE364806
:103080000021CDE90210CDE9001080460A4608462D
:1030900004944346394600F0F1FEA868F030FDF78D
:1030A000EBF902AA434682E8130000202A490246AF
:1030B000CDE90001194600F0E1FEA868F030FDF707
:1030C000DBF90B4602A9002281E81900CDE90003D3
:1030D0003B461046414600F0D1FE002002AA0146C0
:1030E00082E813001B4902460346CDE9000108E0CF
:1030F00000211A48CDE90211CDE9001004960A46D4
:103100000B460020394600F0B9FEAE7000F02AFEF2
:10311000A878032804D100F025FEFFF79FFEAE70CB
:103120002879012806D10E4900200E54401C14288D
:10313000FBDB2E714FF400510A48FDF7FBFC00F059
:1031400013F87CE70F0000202001002090000020F1
:10315000D800002000406F4000406FC000006E406B
:103160007C000020001001402DE9F05FDFF848A14D
:10317000524EDFF84C819AF80000524F0024524D15
:103180004FF0010901282DD1FEF7ECFE287838B167
:103190000621012809D002280FD0032818D01FE0EB
:1031A000317829EA010030701AE03878401CB0FB11
:1031B000F1F201FB1200387012E098F800000321D0
:1031C000401CB0FBF1F301FB130088F8000007E09E
:1031D0003E4A1078401CB0FBF1F301FB1300107065
:1031E0008AF80040DFF8E8A0DFF8E8B09AF80000BD
:1031F000012824D1FEF7B6FE2878022130B101283B
:103200000CD002280FD0032812D016E0307810B16D
:1032100029703C7004E085F80090FAE7297034705A
:1032200088F8004009E085F8009034703C7004E0B4
:10323000DBF80010491CCBF800108AF80040264843
:103240000178012925D104702878032802D00128AB
:1032500006D01EE0DBF80010491ECBF8001018E085
:103260003878062815D2DFE800F00306090C0F12A3
:1032700000F0ECF90DE000F001FA0AE000F014FAB9
:1032800007E000F08FFA04E000F0A2FA01E000F09D
:10329000B1FA124E3078012807D02878032804D0DC
:1032A00000F054FC0020BDE8F09F0320287000F0DF
:1032B000B3FA3470F6E70000220000201A00002064
:1032C0001E0000201C00002018000020200000200C
:1032D00023000020080000202400002025000020FA
:1032E00010B586B0C4A16846FFF784FA0C236A467D
:1032F00000210520FEF748FFC2A16846FFF77AFAD1
:103300000C236A4601210520FEF73EFFC0A1684656
:10331000FFF770FA0C236A4602210520FEF734FFFE
:10332000BEA16846FFF766FA0C236A460321052012
:10333000FEF72AFFBCA16846FFF75CFA0C236A4639
:1033400004210520FEF720FFBAA16846FFF752FAD4
:1033500005210C236A460846FEF716FFB84C207874
:1033600010B101280CD047E0B6A16846FFF742FA39
:1033700000210C236A460846FEF706FFB2A10AE0C8
:10338000B1A16846FFF736FA00210C236A460846C9
:10339000FEF7FAFEABA16846FFF72CFA0C236A464B
:1033A00001210020FEF7F0FEA7A16846FFF722FAF0
:1033B0000C236A4602210020FEF7E6FEA2A1684621
:1033C000FFF718FA0C236A4603210020FEF7DCFE03
:1033D0009DA16846FFF70EFA0C236A4604210020DF
:1033E000FEF7D2FE98A16846FFF704FA0C236A465E
:1033F00005210020FEF7C8FE207802283BD192A1CB
:103400006846FFF7F7F900210C236A460846FEF7E5
:10341000BBFE8DA16846FFF7EDF90C236A4601213A
:103420000020FEF7B1FE87A16846FFF7E3F90C2301
:103430006A4602210020FEF7A7FE83A16846FFF737
:10344000D9F90C236A4603210020FEF79DFE7EA1D8
:103450006846FFF7CFF90C236A4604210020FEF7E7
:1034600093FE79A16846FFF7C5F90C236A4605214A
:103470000020FEF789FE207803283BD172A1684620
:10348000FFF7B8F900210C236A460846FEF77CFED8
:103490006DA16846FFF7AEF90C236A4601210020B2
:1034A000FEF772FE68A16846FFF7A4F90C236A468E
:1034B00002210020FEF768FE62A16846FFF79AF934
:1034C0000C236A4603210020FEF75EFE5EA16846DB
:1034D000FFF790F90C236A4604210020FEF754FE02
:1034E00059A16846FFF786F90C236A46052100209A
:1034F000FEF74AFE207804283BD153A16846FFF727
:1035000079F900210C236A460846FEF73DFE4EA1DC
:103510006846FFF76FF90C236A4601210020FEF789
:1035200033FE49A16846FFF765F90C236A4602217C
:103530000020FEF729FE44A16846FFF75BF90C2343
:103540006A4603210020FEF71FFE3EA16846FFF7F2
:1035500051F90C236A4604210020FEF715FE3AA11A
:103560006846FFF747F90C236A4605210020FEF75D
:103570000BFE207805283BD133A16846FFF73AF9C6
:1035800000210C236A460846FEF7FEFD2EA1684680
:10359000FFF730F90C236A4601210020FEF7F4FD05
:1035A00029A16846FFF726F90C236A46022100206C
:1035B000FEF7EAFD24A16846FFF71CF90C236A46D2
:1035C00003210020FEF7E0FD1FA16846FFF712F976
:1035D0000C236A4604210020FEF7D6FD19A1684697
:1035E000FFF708F90C236A4605210020FEF7CCFD01
:1035F00006B0002010BD0000317175657374696FED
:103600006E203200317175657374696F6E203300FE
:10361000317175657374696F6E2034003271756530
:103620007374696F6E203100327175657374696FE0
:103630006E203200327175657374696F6E203300CD
:103640001C0000202A0000002000000010B504A08B
:10365000FFF7C0F8084901200870002010BD0000E5
:1036600031313131313131313131313131317061DB
:1036700067655F315F3200000E00002010B504A0C6
:10368000FFF7A8F8074902200870002010BD0000CD
:1036900032323232323232323232706167655F3109
:1036A0005F3300000E00002010B504A0FFF792F871
:1036B000094903200870002010BD00003333333364
:1036C000333333333333333333333333333370615F
:1036D00067655F315F3400000E00002010B52E4C8E
:1036E00086B02EA16846A269FFF784F80C236A46CB
:1036F00001210020FEF748FD28A16846E269FFF796
:1037000079F80C236A4601213220FEF73DFD23A102
:1037100068462269FFF76EF80C236A4603210020F1
:10372000FEF732FD1DA168466269FFF763F80C23BE
:103730006A4603213220FEF727FD18A16846A268D9
:10374000FFF758F80C236A4605210020FEF71CFD00
:1037500012A16846E268FFF74DF80C236A4605217E
:103760003220FEF711FD0DA168462268FFF742F8EE
:103770000C236A4607210020FEF706FD07A16846D4
:103780006268FFF737F80C236A4607213220FEF7FC
:10379000FBFC06B0002010BD3C000020202025646A
:1037A0002020000010B504A0FFF714F807490420FA
:1037B0000870002010BD0000343434343434343404
:1037C000706167655F325F31000000000E0000200D
:1037D00010B502A0FEF7FEFF002010BD35353535CF
:1037E0003535353535353535706167655F325F3272
:1037F0000000000010B502A0FEF7ECFF002010BD95
:10380000363636363636363636363636363636701E
:103810006167655F325F33002DE9F041B24E86B0DB
:10382000B2A168463268FEF7E5FF0C236A46002124
:103830000520FEF7A9FCB14FB1A168463A68FEF732
:10384000D9FF0C236A4601210520FEF79DFCDFF815
:10385000BC82AFA16846D8F80020FEF7CBFF0C234E
:103860006A4602210520FEF78FFCAC4CACA16846ED
:103870002268FEF7BFFF0C236A4603210520FEF7EE
:1038800083FCA7A168462268FEF7B4FF0C236A46B2
:1038900004210520FEF778FCA5A16846FEF7AAFFE3
:1038A0000C236A4607210520FEF76EFCA24D2878FE
:1038B00010B1012835D068E0A0A16846FEF79AFF54
:1038C00000210C236A460846FEF75EFC9CA1684670
:1038D000FEF790FF0C236A4601210020FEF754FCFE
:1038E00097A16846FEF786FF0C236A460221002056
:1038F000FEF74AFC92A16846FEF77CFF0C236A465D
:1039000003210020FEF740FC8DA16846FEF772FF00
:103910000C236A4604210020FEF736FC2068306044
:1039200033E087A16846FEF765FF00210C236A4655
:103930000846FEF729FC81A16846FEF75BFF0C23D1
:103940006A4601210020FEF71FFC7DA16846FEF7B4
:1039500051FF0C236A4602210020FEF715FC78A1D6
:103960006846FEF747FF0C236A4603210020FEF756
:103970000BFC73A16846FEF73DFF0C236A46042149
:103980000020FEF701FC206838602878022834D136
:103990006BA16846FEF72EFF00210C236A460846FD
:1039A000FEF7F2FB66A16846FEF724FF0C236A4689
:1039B00001210020FEF7E8FB60A16846FEF71AFF30
:1039C0000C236A4602210020FEF7DEFB5CA168465C
:1039D000FEF710FF0C236A4603210020FEF7D4FBFC
:1039E00057A16846FEF706FF0C236A460421002013
:1039F000FEF7CAFB2168C8F800102878032831D1E7
:103A00004FA16846FEF7F6FE00210C236A460846E1
:103A1000FEF7BAFB4AA16846FEF7ECFE0C236A46A5
:103A200001210020FEF7B0FB45A16846FEF7E2FE4B
:103A30000C236A4602210020FEF7A6FB3FA1684640
:103A4000FEF7D8FE0C236A4603210020FEF79CFBFC
:103A50003BA16846FEF7CEFE0C236A4604210020F7
:103A6000FEF792FB2878042831D135A16846FEF78D
:103A7000C1FE00210C236A460846FEF785FB30A1F3
:103A80006846FEF7B7FE0C236A4601210020FEF7C8
:103A90007BFB2BA16846FEF7ADFE0C236A46022194
:103AA0000020FEF771FB26A16846FEF7A3FE0C235B
:103AB0006A4603210020FEF767FB20A16846FEF757
:103AC00099FE0C236A4604210020FEF75DFB28784E
:103AD000052805D11B49002008701B490870287073
:103AE00006B00020BDE8F081140000206D6F7665FF
:103AF0005F64656275672025640000000000002097
:103B00005864656275672025640000000400002089
:103B10005964656275672025640000000800002074
:103B200064656275675F64617461202564000000EC
:103B30004558544900000000200000202A000000E1
:103B40002000000025000020180000204C4800B58F
:103B5000007885B030B101287CD0FFF7BFFD05B0FB
:103B6000002000BD002211461046FEF7A1FA0122F6
:103B700000211220FEF79CFA022200212420FEF7E9
:103B800097FA032200213620FEF792FA0422002140
:103B90004820FEF78DFA052200215A20FEF788FA08
:103BA000062200216C20FEF783FA07220221092059
:103BB000FEF77EFA082202211B20FEF779FA09227D
:103BC00002212D20FEF774FA0A2202213F20FEF77F
:103BD0006FFA0B2202215120FEF76AFA0C22022111
:103BE0006320FEF765FA0D2205210920FEF760FA31
:103BF0000E2205211B20FEF75BFA0F2205212D2046
:103C0000FEF756FA102205214820FEF751FA11223C
:103C100005215A20FEF74CFA122205216C20FEF7EE
:103C200047FA184818A100780028684613D0FEF714
:103C3000E1FD0C236A4605214120FEF7A5FA13A1F8
:103C40006846FEF7D7FD05210C236A460846FEF7B5
:103C50009BFA84E710E0FEF7CDFD0C236A460521B0
:103C60000020FEF791FA09A16846FEF7C3FD0C2378
:103C700005216A464120EAE7FFF732FB6FE70000C3
:103C8000180000201A0000202A0000002000000078
:103C90002DE9F0472A4C1546984600222346FFF7A7
:103CA00017F806460F460022234628464146FFF7EE
:103CB0000FF8DFF890A004460D4600225346304628
:103CC0003946FCF7F8FADFF88080DFF8809042464A
:103CD0004B46FCF762FB06460F4600225346204641
:103CE0002946FCF7E8FA42464B46FCF756FBDFF85C
:103CF0006080DFF8609004460D4642464B463046F1
:103D00003946FCF7D8FA0022134BFCF72DFAFCF7E2
:103D1000F0FB86B242464B4620462946FCF7CBFADA
:103D200000220E4BFCF720FAFCF7E3FB0C4980B2B3
:103D30000A681664096848630020BDE8F08700003F
:103D400000408F40008066406F1283C0CA21094046
:103D5000C58F31772DA10D4000108840002087408D
:103D6000900000202DE9F0473D4E3068FCF784FBC1
:103D70003C4D07468846A878FCF78FFBDFF8E890B3
:103D800000224B46FCF791FA43463A46FCF7ECF921
:103D9000FCF790FB354C20607668E8782F3E304485
:103DA00060602879FCF779FB00224B46FCF77DFA2E
:103DB00043463A46FCF7D8F9FCF77CFBA0606879EB
:103DC0003044E060A879FCF768FB00224B46FCF722
:103DD0006CFA43463A46FCF7C7F9FCF76BFB2061E7
:103DE000E87930446061287AFCF757FB00224B46A3
:103DF000FCF75BFA3A464346FCF7B6F9FCF75AFB88
:103E0000A061687A3044E061204600F02FF9184F35
:103E1000DFF86080DFF860A0032504F120064FF092
:103E2000663954F83500FCF727FB3A464346FCF761
:103E300042FAFCF73FFB46F8350004EBC50040684A
:103E4000FCF71AFB4A465346FCF735FAFCF732FBFF
:103E500006EBC5016D1E4860E3D50020BDE8F08784
:103E6000000000207C000020004046403C00002074
:103E70007B14AE47E17A1640666615402DE9FE4F89
:103E80001646DDE90C891F46FCF714FBFCF7F4FA33
:103E900004460D4630463946FCF70CFBFCF7ECFABD
:103EA00082468B4640464946FCF704FBFCF7E4FAA1
:103EB00006460F46DDE90E01FCF7FCFAFCF7DCFADA
:103EC0008046894652465B4620462946FCF73EFB23
:103ED00006D142464B4630463946FCF737FB7DD08B
:103EE00052465B4620462946FCF7DFF9FCF7E2FA2A
:103EF000FEF7D9FDFCF7C0FA00225B4BFCF74DFA48
:103F0000FCF754FB019042464B4630463946FCF7DD
:103F1000CCF9FCF7CFFAFEF7C6FDFCF7ADFA0022AC
:103F2000514BFCF73AFAFCF741FB0090002002905D
:103F300052465B4620462946FCF708FB07D201980B
:103F4000FCF7F0FA22462B46FCF70EF90DE052463C
:103F50005B4620462946FCF711FB08D20198FCF786
:103F6000E1FA22462B46FCF7A3F904460D463246F9
:103F70003B4640464946FCF701FB07D20098FCF758
:103F8000D1FA32463B46FCF7EFF80DE032463B46AD
:103F900040464946FCF7DAFA08D20098FCF7C2FA24
:103FA00032463B46FCF784F906460F46204685F02C
:103FB000004132463B46FFF76BFE109880B2FEF799
:103FC000D7FF0298401C0290B0F57A7FB0DB00204A
:103FD000029052465B462046294600E042E0FCF74C
:103FE000B5FA07D20198FCF79DFA22462B46FCF75A
:103FF000BBF80DE052465B4620462946FCF7BEFA68
:1040000008D20198FCF78EFA22462B46FCF750F9AD
:1040100004460D4632463B4640464946FCF7AEFA5A
:1040200007D20098FCF77EFA32463B46FCF79CF834
:104030000DE032463B4640464946FCF787FA08D237
:104040000098FCF76FFA32463B46FCF731F906461A
:104050000F464FF4C870FEF78BFF0298401C029089
:10406000C828B6DBBDE8FE8F00408F402DE9FC4339
:1040700000260446012504EBC600804604EBC50774
:104080000CC8D7E90001FEF7E3FED8F80430D8F8F1
:104090000020074619461046FEF7DAFE874200DA8E
:1040A0002E466D1C042DE6DB04EBC600D4E900129D
:1040B000D0E90035C4E90035C0E90012022604EB5E
:1040C000C600751ED0E90080814604E0D7E90001F2
:1040D000C7E902016D1E012D0BDB04EBC507CDE91D
:1040E0000089D7E90023D4E90001FEF76BFF00281F
:1040F000ECDC04EBC500761CC0E90289042EDEDB93
:10410000BDE8FC83F0B41B4C00262146012749780A
:104110002378194D4A1CD2B233B1012B08D0022B9F
:104120000DD0032B14D018E0A52816D1277003E07A
:10413000A62812D1022323706854627013E06854D9
:1041400062700E2A01D85B280DD1032020700AE08E
:10415000681810F8010C5B2803D026706670267171
:1041600001E026702771F0BC02490122C91C0348F6
:10417000FDF7C8BC0C0000207C00002020010020BE
:104180000000000000000000002F000000000700F9
:10419000070000147F147F1400242A7F2A12006273
:1041A000640813230036495522500000050300001F
:1041B00000001C224100000041221C000014083EA7
:1041C00008140008083E0808000000A0600000086D
:1041D00008080808000060600000002010080402C1
:1041E000003E5149453E0000427F4000004261517F
:1041F0004946002141454B31001814127F10002719
:1042000045454539003C4A494930000171090503DB
:1042100000364949493600064949291E000036360C
:10422000000000005636000000081422410000146F
:10423000141414140000412214080002015109064C
:1042400000324959513E007C1211127C007F4949CD
:104250004936003E41414122007F4141221C007FFE
:1042600049494941007F09090901003E4149497A0C
:10427000007F0808087F0000417F41000020404186
:104280003F01007F08142241007F40404040007FF2
:10429000020C027F007F0408107F003E4141413E36
:1042A000007F09090906003E4151215E007F09197E
:1042B00029460046494949310001017F0101003F7B
:1042C0004040403F001F2040201F003F4038403FFB
:1042D000006314081463000708700807006151495F
:1042E000454300007F41410000552A552A550000F2
:1042F00041417F0000040201020400404040404070
:10430000000001020400002054545478007F484407
:10431000443800384444442000384444487F00383E
:104320005454541800087E0901020018A4A4A47C67
:10433000007F080404780000447D40000040808431
:104340007D00007F102844000000417F4000007C79
:1043500004180478007C0804047800384444443885
:1043600000FC242424180018242418FC007C0804D1
:10437000040800485454542000043F444020003CAA
:104380004040207C001C2040201C003C4030403C31
:10439000004428102844001CA0A0A07C00446454C1
:1043A0004C44141414141414000000000000000005
:1043B0000000000000000000000000F80000000005
:1043C000000000333000000000100C06100C060046
:1043D000000000000000000040C07840C0784000AD
:1043E000043F04043F040400007088FC083000000F
:1043F000001820FF211E0000F008F000E018000067
:1044000000211C031E211E0000F00888700000001F
:104410001E2123241927211010160E000000000071
:104420000000000000000000000000E0180402008E
:10443000000000071820400000020418E0000000FF
:104440000040201807000000404080F080404000FD
:104450000202010F01020200000000F00000000053
:104460000101011F01010100000000000000000027
:1044700080B070000000000000000000000000009C
:104480000001010101010101000000000000000025
:1044900000303000000000000000000080601804C0
:1044A000006018060100000000E010080810E0009D
:1044B000000F102020100F00001010F80000000066
:1044C0000020203F202000000070080808887000AD
:1044D000003028242221300000300888884830002D
:1044E0000018202020110E000000C02010F800004D
:1044F00000070424243F240000F8088888080800E6
:104500000019212020110E0000E0108888180000FA
:10451000000F112020110E0000380808C8380800CC
:104520000000003F0000000000708808088870004C
:10453000001C222121221C0000E010080810E000CD
:104540000000312222110F00000000C0C000000056
:10455000000000303000000000000080000000007B
:104560000000806000000000000080402010080073
:10457000000102040810200040404040404040003C
:104580000404040404040400000810204080000017
:104590000020100804020100007048080808F0001C
:1045A0000000003036010000C030C828E810E000EC
:1045B0000718272423140B000000C038E000000077
:1045C000203C23020227382008F8888888700000E1
:1045D000203F202020110E00C030080808083800B5
:1045E000071820202010080008F808080810E0002C
:1045F000203F202020100F0008F88888E8081000CD
:10460000203F20202320180008F88888E8081000A0
:10461000203F200003000000C030080808380000D8
:1046200007182020221E020008F808000008F808D9
:10463000203F210101213F20000808F80808000060
:104640000020203F2020000000000808F808080093
:10465000C08080807F00000008F888C0281808000B
:10466000203F20012638200008F808000000000044
:10467000203F20202020300008F8F800F8F808003B
:10468000203F003F003F200008F830C00008F80835
:10469000203F200007183F00E01008080810E00045
:1046A0000F10202020100F0008F808080808F0005C
:1046B000203F210101010000E01008080810E0007F
:1046C0000F18242438504F0008F888888888700014
:1046D000203F2000030C30200070880808083800B4
:1046E0000038202121221C00180808F808081800AA
:1046F0000000203F2000000008F808000008F8082B
:10470000001F202020201F000878880000C83808DB
:10471000000007380E010000F80800F80008F80053
:10472000033C0700073C03000818688080681808ED
:1047300020302C03032C30200838C800C83808006B
:104740000000203F2000000010080808C8380800BA
:104750002038262120201800000000FE020202005E
:104760000000007F40404000000C30C0000000000E
:10477000000000010638C00000020202FE00000036
:10478000004040407F0000000000040202020400DC
:104790000000000000000000000000000000000019
:1047A0008080808080808080000202040000000001
:1047B00000000000000000000000808080800000F9
:1047C0000019242222223F2008F8008080000000E7
:1047D000003F112020110E000000008080800000AA
:1047E000000E112020201100000000808088F800B9
:1047F000000E112020103F200000808080800000EB
:10480000001F222222221300008080F0888888184E
:104810000020203F20200000000080808080800059
:10482000006B94949493600008F8008080800000EE
:10483000203F210000203F200080989800000000C9
:104840000020203F202000000000008098980000F9
:1048500000C08080807F000008F800008080800019
:10486000203F24022D302000000808F8000000003E
:104870000020203F202000008080808080808000F9
:10488000203F20003F20003F80800080808000008B
:10489000203F210000203F20000080808080000019
:1048A000001F202020201F0080800080800000004A
:1048B00080FFA12020110E00000000808080800079
:1048C000000E112020A0FF8080808000808080006A
:1048D00020203F2120000100000080808080800097
:1048E0000033242424241900008080E0808000000C
:1048F0000000001F20200000808000000080800059
:10490000001F202020103F208080800000808080B9
:1049100000010E3008060100808000800080808049
:104920000F300C030C300F0000808000808080006E
:104930000020312E0E312000808080000080808099
:1049400080818E7018060100008080808080800049
:104950000021302C2221300000000000807C020267
:1049600000000000003F404000000000FF00000089
:1049700000000000FF0000000002027C8000000038
:104980000040403F00000000000601010202040454
:104990000000000000000000404042CC0020222225
:1049A000A26222222220000000000000000000007D
:1049B00000000000000000000040201F20444E4581
:1049C00044444445464C4000000000000000000004
:1049D00000000000000000004044C4444444401073
:1049E00010FF101010F00000000000000000000098
:1049F0000000000000000000103C131014B840300C
:104A00000E014080403F0000000000000000000058
:104A100000000000000000000000FE2222222222EE
:104A200022222222FE000000000000000000000000
:104A300000000000000000000000FF42424242422D
:104A400042424242FF00000000000000000000005F
:104A500000000000000000001010D0FF9010202285
:104A60002222E2222222200000000000000000009A
:104A70000000000000000000040300FF00130C030E
:104A800040807F00010618000000000000000000C8
:104A90000000000000000000101010FF9020984857
:104AA00028090E2848A81800000000000000000097
:104AB00000000000000000000242817F00404042F0
:104AC00042427E42424240000000000000000000DE
:104AD000000000000000000040504E4848FF4848D9
:104AE0004840F80000FF0000000000000000000047
:104AF000000000000000000000003E0202FF122241
:104B00001E000F40807F0000000000000000000039
:104B100000000000000000000000E09F88888888F6
:104B200088888888880800000000000000000000D5
:104B30000000000000000000080808080808080835
:104B4000084880403F000000000000000000000016
:104B50000000000000000000000000F8888C8A8936
:104B6000888888F8000000000000000000000000B5
:104B70000000000000000000000000FF4444444426
:104B8000444444FF0000000000000000000000005A
:104B900000000000000000004044C44444444010B1
:104BA00010FF101010F000000000000000000000D6
:104BB0000000000000000000103C131014B840304A
:104BC0000E014080403F0000000000000000000097
:104BD0000000000000000000404042CC0000FC2427
:104BE00024262524243C00000000000000000000D2
:104BF00000000000000000000040201F20405F492E
:104C00004949494949495F0000000000000000008F
:104C10000000000000000000003E22E23E100C24D4
:104C20002425262424140C000000000000000000AD
:104C30000000000000000000203F201F1222110D84
:104C400041817F01050931000000000000000000E3
:104C50000000000000000000000022322AA6A2622C
:104C60002111098101000000000000000000000087
:104C70000000000000000000004222130B42827E70
:104C800002020A122346000000000000000000009B
:104C900000000000000000002030AC63300088C835
:104CA000A8998E88A8C888000000000000000000B5
:104CB0000000000000000000226722121280403035
:104CC0000F00003F404071000000000000000000A5
:104CD000000000000000000000040404FF545454CD
:104CE0005454FF0404040000000000000000000011
:104CF000000000000000000011118985939191FDD2
:104D000091919385891111000000000000000000BE
:104D100000000000000000000010101010D030FF54
:104D200030D0101010100000000000000000000043
:104D3000000000000000000010080402090808FF3D
:104D4000080809020408100000000000000000002C
:104D500000000000000000008080BEAAAAAABE8059
:104D600002F21AD612F20200000000000000000059
:104D7000000000000000000080601C207F444444CC
:104D8000504B4443444B5000000000000000000022
:104D900000000000000000000000181610D0B897B6
:104DA000909090929410000000000000000000001D
:104DB00000000000000000000020108C83804146AD
:104DC00028102844438080000000000000000000FC
:104DD0000000000000000000101010FF10982622B4
:104DE000E23AA222222A0600000000000000000091
:104DF00000000000000000000444827F0110101336
:104E00001212FF1212121000000000000000000039
:104E100000000000000000008080BEAAAAAABE8098
:104E200002F21AD612F20200000000000000000098
:104E3000000000000000000080601C207F4444440B
:104E4000504B4443444B5000000000000000000061
:104E50000000000000000000010202030405060734
:104E600008090A0B0C0D0E0F1010000000000000C6
:104E70000000010203040607080900000000010207
:104E800003040000000000004FBB610567ACDD3F7C
:104E9000182D4454FB21E93F9BF681D20B73EF3F61
:104EA000182D4454FB21F93FE2652F227F2B7A3CD9
:104EB000075C143326A6813CBDCBF07A8807703C92
:104EC000075C143326A6913CC4EB98999999C9BF05
:104ED000711623FEC671BCBF6D9A74AFF2B0B3BF3A
:104EE0009AFDDE522DDEADBF2F6C6A2C44B4A2BFFA
:104EF0000D5555555555D53FFF8300922449C23F66
:104F00006E204CC5CD45B73F513DD0A0660DB13F99
:104F1000EB0D76244B7BA93F11DA22E33AAD903FAB
:104F20000000000000000000484F000800000020C2
:104F30003C00000028290008844F00083C000020A5
:104F4000740500003829000800000000000000007F
:104F50000000000000000000000000000000000051
:104F60000000000000000000000000000000000041
:104F70000100000010000000000000000024F40008
:044F8000000000002D
:04000005080000ED02
:00000001FF
